:020000040000FA
:06000000D7EF1CF0120016
:020006001200E6
:0600080080EF19F0120068
:0600180000EF18F01200D9
:100050000000080002863620010001090001A637D1
:0D0060002002000100000000000000000070
:10010000D9CFE6FFE1CFD9FF0301BF51F36EFE0E59
:10011000DBCFF4FFF350F45C02E3030ED4D0FE0E09
:10012000DB500C0DF3CFE9FFF4CFEAFFA70EE92671
:10013000030EEA22EF0402E1070EC5D0FC0EDBCF6E
:1001400014F0FD0EDBCF15F0FE0EDB500C0DF3CFDF
:10015000E9FFF4CFEAFFA70EE926030EEA22050E17
:10016000E926000EEA22EE50EFCFEAFFE96EEECF6D
:1001700016F0EFCF17F01450165C1550175802E226
:10018000080EA1D0FA0EDBCF14F0FB0EDBCF15F07A
:10019000FE0EDB500C0DF3CFE9FFF4CFEAFFA70E04
:1001A000E926030EEA22050EE926000EEA22EE50A9
:1001B000EFCFEAFFE96E040EE926000EEA22EECF49
:1001C00016F0EFCF17F01650145C1750155822E3B5
:1001D000FA0EDBCF18F0FB0EDBCF19F0FE0EDB5072
:1001E0000C0DF3CFE9FFF4CFEAFFA70EE926030ECB
:1001F000EA22050EE926000EEA22EE50EFCFEAFFD2
:10020000E96EEECF1AF0EFCF1BF018501A5C1950C0
:100210001B5802E2080E57D0FC0EDBCF16F0FD0E85
:10022000DBCF17F0FE0EDB500C0DF3CFE9FFF4CF60
:10023000EAFFA70EE926030EEA22050EE926000EC4
:10024000EA22EE50EFCFEAFFE96E060EE926000E35
:10025000EA221650EE24146E1750EE20156EFE0E94
:10026000DB500C0DF3CFE9FFF4CFEAFFA70EE92630
:10027000030EEA22EE5214C0EEFF15C0EDFFFE0E93
:10028000DB500C0DF3CFE9FFF4CFEAFFA70EE92610
:10029000030EEA22030EE926000EEA22FA0EDBCF55
:1002A000EEFFFB0EDBCFEDFFFE0EDB500C0DF3CFB0
:1002B000E9FFF4CFEAFFA70EE926030EEA22010EBA
:1002C000EF6E000E00D0E552E7CFD9FF1200D9CF74
:1002D000E6FFE1CFD9FF0301BF51F36EFE0EDBCF86
:1002E000F4FFF350F45C02E3030EB3D0FE0EDB50D8
:1002F0000C0DF3CFE9FFF4CFEAFFA70EE926030EBA
:10030000EA22EF0402E1070EA4D0FC0EDBCF14F0CA
:10031000FD0EDBCF15F0FE0EDB500C0DF3CFE9FF29
:10032000F4CFEAFFA70EE926030EEA22050EE9261E
:10033000000EEA22EE50EFCFEAFFE96EEECF16F0A4
:10034000EFCF17F01450165C1550175802E2080E44
:1003500080D0FA0EDBCF14F0FB0EDBCF15F0FE0ED3
:10036000DB500C0DF3CFE9FFF4CFEAFFA70EE9262F
:10037000030EEA22050EE926000EEA22EE50EFCF28
:10038000EAFFE96E040EE926000EEA22EECF16F02F
:10039000EFCF17F01650145C1750155822E3FA0EE1
:1003A000DBCF18F0FB0EDBCF19F0FE0EDB500C0D8F
:1003B000F3CFE9FFF4CFEAFFA70EE926030EEA2206
:1003C000050EE926000EEA22EE50EFCFEAFFE96EB5
:1003D000EECF1AF0EFCF1BF018501A5C19501B58D3
:1003E00002E2080E36D0FE0EDB500C0DF3CFE9FF13
:1003F000F4CFEAFFA70EE926030EEA22EE52FC0E26
:10040000DBCFEEFFFD0EDBCFEDFFFE0EDB500C0D64
:10041000F3CFE9FFF4CFEAFFA70EE926030EEA22A5
:10042000030EE926000EEA22FA0EDBCFEEFFFB0EEA
:10043000DBCFEDFFFE0EDB500C0DF3CFE9FFF4CF69
:10044000EAFFA70EE926030EEA22010EEF6E000E68
:1004500000D0E552E7CFD9FF1200D9CFE6FFE1CFB8
:10046000D9FF0301BF51F36EFE0EDBCFF4FFF35053
:10047000F45C02E3030E48D0FE0EDB500C0DF3CF0C
:10048000E9FFF4CFEAFFA70EE926030EEA22EF50B8
:1004900002E1050E39D0FE0EDB500C0DF3CFE9FF63
:1004A000F4CFEAFFA70EE926030EEA22EE52EECFC2
:1004B00016F0EFCF17F0FE0EDB500C0DF3CFE9FF77
:1004C000F4CFEAFFA70EE926030EEA22050EE9267D
:1004D000000EEA22EE50EFCFEAFFE96E060EE926A3
:1004E000000EEA22EE50165C146EEE501758156E90
:1004F000FC0EDBCFE9FFFD0EDBCFEAFF14C0EEFF01
:1005000015C0EDFF000E00D0E552E7CFD9FF120075
:10051000D9CFE6FFE1CFD9FF0301BF51F36EFE0E45
:10052000DBCFF4FFF350F45C02E3030E1DD0FE0EAC
:10053000DB500C0DF3CFE9FFF4CFEAFFA70EE9265D
:10054000030EEA22EF5002E1050E0ED0FE0EDB5044
:100550000C0DF3CFE9FFF4CFEAFFA70EE926030E57
:10056000EA22EF6A000E00D0E552E7CFD9FF120071
:10057000D9CFE6FFE1CFD9FF0301BF51F36EFE0EE5
:10058000DBCFF4FFF350F45C02E3030E1FD0FE0E4A
:10059000DB500C0DF3CFE9FFF4CFEAFFA70EE926FD
:1005A000030EEA22050EE926000EEA22EE50EFCFF6
:1005B000EAFFE96EE9CF14F0EACF15F0FC0E14C0A3
:1005C000DBFFFD0E15C0DBFF000E00D0E552E7CFCC
:1005D000D9FF1200D9CFE6FFE1CFD9FF0301BF5108
:1005E000F36EFE0EDBCFF4FFF350F45C02E3030E78
:1005F00055D1FE0EDB500C0DF3CFE9FFF4CFEAFF2F
:10060000A70EE926030EEA22EF5002E1010E46D1C1
:10061000FE0EDB500C0DF3CFE9FFF4CFEAFFA70E7F
:10062000E926030EEA22050EE926000EEA22EE5024
:10063000EFCFEAFFE96E060EE926000EEA22EE2A67
:10064000EF22FE0EDB500C0DF3CFE9FFF4CFEAFFF3
:10065000A70EE926030EEA22050EE926000EEA227D
:10066000EE50EFCFEAFFE96E060EE926000EEA2211
:10067000EECF14F0EFCF15F0FE0EDB500C0DF3CFE4
:10068000E9FFF4CFEAFFA70EE926030EEA22EE52B5
:10069000EECF16F0EFCF17F01650141802E11750F6
:1006A000151801E0F9D0FE0EDB500C0DF3CFE9FF79
:1006B000F4CFEAFFA70EE926030EEA22030EE9268D
:1006C000000EEA22EE50ED100DE1FE0EDB500C0D97
:1006D000F3CFE9FFF4CFEAFFA70EE926030EEA22E3
:1006E000EF6A40D0FE0EDB500C0DF3CFE9FFF4CFE4
:1006F000EAFFA70EE926030EEA22050EE926000E00
:10070000EA22EE50EFCFEAFFE96E060EE926000E70
:10071000EA22EECF16F0EFCF17F0FE0EDB500C0DF5
:10072000F3CFE9FFF4CFEAFFA70EE926030EEA2292
:10073000030EE926000EEA221650EE24146E17501E
:10074000EE20156EFE0EDB500C0DF3CFE9FFF4CF5B
:10075000EAFFA70EE926030EEA22EE5214C0EEFFCE
:1007600015C0EDFFFE0EDB500C0DF3CFE9FFF4CF0B
:10077000EAFFA70EE926030EEA22080EE926000E7C
:10078000EA22EE50ED1026E0FE0EDB500C0DF3CF0A
:10079000E9FFF4CFEAFFA70EE926030EEA22080ECE
:1007A000E926000EEA22EF50E66EFE0EDB500C0D3D
:1007B000F3CFE9FFF4CFEAFFA70EE926030EEA2202
:1007C000070EE926000EEA22EF50E66E5FEC0AF013
:1007D000E552E552FE0EDB500C0DF3CFE9FFF4CFEE
:1007E000EAFFA70EE926030EEA22070EE926000E0D
:1007F000EA22EF5026E0FE0EDB500C0DF3CFE9FFAE
:10080000F4CFEAFFA70EE926030EEA22080EE92636
:10081000000EEA22EE50ED1014E1FE0EDB500C0D3E
:10082000F3CFE9FFF4CFEAFFA70EE926030EEA2291
:10083000070EE926000EEA22EF50E66E24EC07F0E0
:10084000E552FE0EDB500C0DF3CFE9FFF4CFEAFFCB
:10085000A70EE926030EEA220A0EE926000EEA2276
:10086000EE50ED1019E0FE0EDB500C0DF3CFE9FF5A
:10087000F4CFEAFFA70EE926030EEA220A0EE926C4
:10088000000EEA22EECF14F0EFCF15F004D015C021
:10089000FAFF1450F96EFBDF030E00D0E552E7CFEC
:1008A000D9FF1200D9CFE6FFE1CFD9FF0301BF5135
:1008B000F36EFE0EDBCFF4FFF350F45C02E3030EA5
:1008C00036D0FE0EDB500C0DF3CFE9FFF4CFEAFF7C
:1008D000A70EE926030EEA22EF5002E1010E27D00F
:1008E000FE0EDB500C0DF3CFE9FFF4CFEAFFA70EAD
:1008F000E926030EEA22050EE926000EEA22EE5052
:10090000EFCFEAFFE96E060EE926000EEA22EECFEF
:1009100014F0EFCF15F0FC0EDBCFE9FFFD0EDBCFBF
:10092000EAFF14C0EEFF15C0EDFF000E00D0E55247
:10093000E7CFD9FF1200D9CFE6FFE1CFD9FF030EF1
:10094000E126010ED6CFDBFF020ED7CFDBFFD95059
:10095000010FE96EDACFEAFF0301DD51EE26DE5129
:10096000ED22020EDB50D76E010EDB50D66EF294F4
:100970000301A32B000EA4230301C12BC223C32315
:10098000C423DF6A0301BF51DF5C01E32BD1DF50D9
:100990000C0DF3CFE9FFF4CFEAFFA70EE926030E13
:1009A000EA22EF5001E11CD1DF500C0DF3CFE9FF3B
:1009B000F4CFEAFFA70EE926030EEA22050EE92688
:1009C000000EEA22EE50EFCFEAFFE96E060EE926AE
:1009D000000EEA22EECF14F0EFCF15F0DF500C0D31
:1009E000F3CFE9FFF4CFEAFFA70EE926030EEA22D0
:1009F000EE52EECF16F0EFCF17F01650141802E1BA
:100A00001750151801E0ECD0DF500C0DF3CFE9FFC3
:100A1000F4CFEAFFA70EE926030EEA22030EE92629
:100A2000000EEA22EE50ED100CE1DF500C0DF3CF7A
:100A3000E9FFF4CFEAFFA70EE926030EEA22EF6AE8
:100A40003DD0DF500C0DF3CFE9FFF4CFEAFFA70E46
:100A5000E926030EEA22050EE926000EEA22EE50F0
:100A6000EFCFEAFFE96E060EE926000EEA22EECF8E
:100A700016F0EFCF17F0DF500C0DF3CFE9FFF4CFF6
:100A8000EAFFA70EE926030EEA22030EE926000E6E
:100A9000EA221650EE24146E1750EE20156EDF5029
:100AA0000C0DF3CFE9FFF4CFEAFFA70EE926030E02
:100AB000EA22EE5214C0EEFF15C0EDFFDF500C0D20
:100AC000F3CFE9FFF4CFEAFFA70EE926030EEA22EF
:100AD000080EE926000EEA22EE50ED1024E0DF5069
:100AE0000C0DF3CFE9FFF4CFEAFFA70EE926030EC2
:100AF000EA22080EE926000EEA22EF50E66EDF50E9
:100B00000C0DF3CFE9FFF4CFEAFFA70EE926030EA1
:100B1000EA22070EE926000EEA22EF50E66E5FECAD
:100B20000AF0E552E552DF500C0DF3CFE9FFF4CFA8
:100B3000EAFFA70EE926030EEA22070EE926000EB9
:100B4000EA22EF5024E0DF500C0DF3CFE9FFF4CFA1
:100B5000EAFFA70EE926030EEA22080EE926000E98
:100B6000EA22EE50ED1013E1DF500C0DF3CFE9FF58
:100B7000F4CFEAFFA70EE926030EEA22070EE926C4
:100B8000000EEA22EF50E66E24EC07F0E552DF504B
:100B90000C0DF3CFE9FFF4CFEAFFA70EE926030E11
:100BA000EA220A0EE926000EEA22EE50ED1018E0C5
:100BB000DF500C0DF3CFE9FFF4CFEAFFA70EE926D3
:100BC000030EEA220A0EE926000EEA22EECF14F006
:100BD000EFCF15F004D015C0FAFF1450F96EFBDF0B
:100BE000DF2AD0D600016485030EE15C03E200D069
:100BF000E16AE552E16EE552E7CFD9FF1200D9CFA5
:100C0000E6FFE1CFD9FF030EE126D950010FE96ECF
:100C1000DACFEAFFA00EEE6E000EED6EDF6A100E68
:100C2000DF5C3DE2010EDBCFE9FF020EDBCFEAFF26
:100C3000EF500F0B146EFD0EDB50145C29E1DF50FA
:100C4000156AB00F146E000E1522010E14C0DBFFE2
:100C5000020E15C0DBFF010EDBCFE9FF020EDBCF7A
:100C6000EAFFEF50F00BE66E010EDBCFE9FF020E5C
:100C7000DBCFEAFFE552E750EF6E010EDBCFE9FF75
:100C8000020EDBCFEAFFFE0EDB50EF26000E09D08E
:100C9000010EDB2A020E01E3DB2ADF2AC0D7030E96
:100CA00000D0146E030EE15C02E2E16AE552E16EEF
:100CB0001450E552E7CFD9FF1200D9CFE6FFE1CFBC
:100CC000D9FF030EE126D950010FE96EDACFEAFF12
:100CD000A00EEE6E000EED6EDF6A100EDF5C34E2E9
:100CE000010EDBCFE9FF020EDBCFEAFFEF500F0B67
:100CF000146EFC0EDB50145C20E1DF50156AB00F5F
:100D0000146E000E1522010E14C0DBFF020E15C07A
:100D1000DBFF010EDBCFE9FF020EDBCFEAFFEF5076
:100D20000F0BE66EFD0EDBCFE9FFFE0EDBCFEAFF19
:100D3000E552E750EF6E000E09D0010EDB2A020EDD
:100D400001E3DB2ADF2AC9D7030E00D0146E030E9D
:100D5000E15C02E2E16AE552E16E1450E552E7CF50
:100D6000D9FF1200D9CFE6FFE1CFD9FF00016035EE
:100D700014E2100E0001E76E6019E8AE02D0E7340D
:100D800002D0E750605D09E2FD0EDBCFE9FFFE0E09
:100D9000DBCFEAFF60C0EFFF08D0FD0EDBCFE9FF3D
:100DA000FE0EDBCFEAFF100EEF6E000E00D0E55214
:100DB000E7CFD9FF1200D9CFE6FFE1CFD9FF030E6D
:100DC000E126D950010FE96EDACFEAFFA00EEE6EF0
:100DD000000EED6EDF6A100EDF5C28E2010EDBCF45
:100DE000E9FF020EDBCFEAFFEF500F0B146EFE0E91
:100DF000DB50145C14E1010EDBCFE9FF020EDBCF08
:100E0000EAFFEF50E00BE66EFC0EDBCFE9FFFD0ED4
:100E1000DBCFEAFFE552E750EF6E000E09D0010E7E
:100E2000DB2A020E01E3DB2ADF2AD5D7030E00D02E
:100E3000146E030EE15C02E2E16AE552E16E1450C9
:100E4000E552E7CFD9FF1200D9CFE6FFE1CFD9FFB6
:100E5000030EE126D950010FE96EDACFEAFFA00EAA
:100E6000EE6E000EED6EDF6A100EDF5C57E2010ED3
:100E7000DBCFE9FF020EDBCFEAFFEF500F0B146E62
:100E8000FE0EDB50145C43E1010EDBCFE9FF020EE6
:100E9000DBCFEAFFEF50E00B16E10F0E146E010EF0
:100EA000DBCFE9FF020EDBCFEAFF1450EF16200E76
:100EB000146E010EDBCFE9FF020EDBCFEAFF145008
:100EC000EF2616D922D0DF50156AB00F146E000E2F
:100ED0001522010E14C0DBFF020E15C0DBFF010E50
:100EE000DBCFE9FF020EDBCFEAFFEF50F00B146E11
:100EF000F00E145C0AE2100E146E010EDBCFE9FF57
:100F0000020EDBCFEAFF1450EF26000E09D0010ECF
:100F1000DB2A020E01E3DB2ADF2AA6D7030E00D06C
:100F2000146E030EE15C02E2E16AE552E16E1450D8
:100F3000E552E7CFD9FF1200D9CFE6FFE1CFD9FFC5
:100F4000030EE126D950010FE96EDACFEAFFA00EB9
:100F5000EE6E000EED6EDF6A100EDF5C54E2010EE5
:100F6000DBCFE9FF020EDBCFEAFFEF500F0B0001F2
:100F7000605D42E1DF50156AB00F146E000E15225D
:100F8000010E14C0DBFF020E15C0DBFF010EDBCF2C
:100F9000E9FF020EDBCFEAFFEF50E00B20E1DF506C
:100FA000156AA00F146E000E1522010E14C0DBFF8F
:100FB000020E15C0DBFF0F0E146E010EDBCFE9FF32
:100FC000020EDBCFEAFF1450EF16010EDBCFE9FF74
:100FD000020EDBCFEAFFF29C1BEF0EF00DD0100EDD
:100FE000146E010EDBCFE9FF020EDBCFEAFF1450D7
:100FF000EF5EF29C1BEF0EF0010EDB2A020E01E306
:10100000DB2ADF2AA9D7000E00D0146E030EE15CA4
:1010100002E2E16AE552E16E1450E552E7CFD9FFF2
:101020001200D9CFE6FFE1CFD9FF030EE126D95058
:10103000010FE96EDACFEAFFA00EEE6E000EED6E44
:10104000DF6A100EDF5C43E2010EDBCFE9FF020E28
:10105000DBCFEAFFEF500F0B0001605D10E10F0ED8
:10106000146E010EDBCFE9FF020EDBCFEAFF145056
:10107000EF16010EDBCFE9FF020EDBCFEAFF010E18
:10108000DBCFE9FF020EDBCFEAFFEF500F0B146E50
:10109000FE0EDB50145C14E10F0E146E010EDBCF5C
:1010A000E9FF020EDBCFEAFF1450EF16200E146E9C
:1010B000010EDBCFE9FF020EDBCFEAFF1450EF2673
:1010C000010EDB2A020E01E3DB2ADF2ABAD7F29CEB
:1010D0001BEF0EF0000E00D0146E030EE15C02E276
:1010E000E16AE552E16E1450E552E7CFD9FF1200F4
:1010F000F29C00016485000164A302D0000E46D07A
:1011000000016495000164A13DD0F29CD8CFE4FFBA
:10111000E8CFE4FFE0CFE4FFD9CFE4FFDACFE4FF8C
:10112000E9CFE4FFEACFE4FFF8CFE4FFF7CFE4FF35
:10113000F6CFE4FFF5CFE4FFF4CFE4FFF3CFE4FF15
:10114000210EE96AEA6AE850E806000903E0EECFFA
:10115000E4FFF9D7FCCFE9FFFC50000808E2FDCF1F
:10116000E4FFFECFE4FFFFCFE4FF0600F5D7E9CFB1
:10117000E4FFE452D8C3E9FFD9C3EAFFE1CFEEFFB1
:10118000E2CFEEFFEEEF0CF0000E00D012000301F4
:10119000D75100D01200D9CFE6FFE1CFD9FFF29CA2
:1011A000D8CFE4FFE8CFE4FFE0CFE4FFD9CFE4FFFE
:1011B000DACFE4FFE9CFE4FFEACFE4FFF8CFE4FFC2
:1011C000F7CFE4FFF6CFE4FFF5CFE4FFF4CFE4FF81
:1011D000F3CFE4FF210EE96AEA6AE850E806000965
:1011E00003E0EECFE4FFF9D7FCCFE9FFFC500008A5
:1011F00008E2FDCFE4FFFECFE4FFFFCFE4FF0600EF
:10120000F5D7E9CFE4FFE452E1CFE9FFE2CFEAFF0F
:10121000E1CFEEFFE2CFEEFFE1CFD6F3E2CFD5F3A1
:10122000FE0EDBCFD7F3FC6A5EEF0CF0E552E7CFA2
:10123000D9FF1200D9CFE6FFE1CFD9FFD6C3E1FF36
:10124000D5C3E2FF58EC0DF0E552E7CFD9FF12000D
:10125000F29CD8CFE4FFE8CFE4FFE0CFE4FFD9CFA2
:10126000E4FFDACFE4FFE9CFE4FFEACFE4FFF8CF11
:10127000E4FFF7CFE4FFF6CFE4FFF5CFE4FFF4CFD0
:10128000E4FFF3CFE4FF210EE96AEA6AE850E806DA
:10129000000903E0EECFE4FFF9D7FCCFE9FFFC50F3
:1012A000000808E2FDCFE4FFFECFE4FFFFCFE4FF3C
:1012B0000600F5D7E9CFE4FFE452D8C3E9FFD9C36C
:1012C000EAFFE1CFEEFFE2CFEEFFB9EF0CF0120044
:1012D000D9CFE6FFE1CFD9FFFD0EDBCF14F0FE0E34
:1012E000DBCF15F00301C851166E176A1650145C57
:1012F0001750155802E3030E73D0FD0EDBCFE9FF44
:10130000FE0EDBCFEAFF030EEA02F3CFEAFFE902AB
:10131000F3CFE9FFF450EA26C50EE926030EEA22D0
:10132000020EE926000EEA22EF0402E1010E58D077
:1013300060C0E6FFFD0EDBCFE9FFFE0EDBCFEAFF6C
:10134000030EEA02F3CFEAFFE902F3CFE9FFF4501C
:10135000EA26C50EE926030EEA22EE52E9CF14F082
:10136000EACF15F014C0E6FF15C0E6FFA6DCE55293
:10137000E552E55260C0E6FFFD0EDBCFE9FFFE0E51
:10138000DBCFEAFF030EEA02F3CFEAFFE902F3CF75
:10139000E9FFF450EA26C50EE926030EEA22EF50D3
:1013A000E66E2DDCE552E552FD0EDBCFE9FFFE0EC9
:1013B000DBCFEAFF030EEA02F3CFEAFFE902F3CF45
:1013C000E9FFF450EA26C50EE926030EEA22020ED2
:1013D000E926000EEA22010EEF6E3ADF000E00D081
:1013E000E552E7CFD9FF1200D9CFE6FFE1CFD9FF11
:1013F000FD0EDBCF14F0FE0EDBCF15F00301C8515C
:10140000166E176A1650145C1750155802E3030E37
:1014100052D0FD0EDBCFE9FFFE0EDBCFEAFF030E5D
:10142000EA02F3CFEAFFE902F3CFE9FFF450EA263C
:10143000C50EE926030EEA22020EE926000EEA2274
:10144000EF5002E1010E37D060C0E6FFFD0EDBCFAA
:10145000E9FFFE0EDBCFEAFF030EEA02F3CFEAFF5D
:10146000E902F3CFE9FFF450EA26C50EE926030EA0
:10147000EA22EE52EF50E66EFFEC05F0E552E5523F
:10148000FD0EDBCFE9FFFE0EDBCFEAFF030EEA0223
:10149000F3CFEAFFE902F3CFE9FFF450EA26C50EE5
:1014A000E926030EEA22020EE926000EEA22EF6A7E
:1014B000CFDE000E00D0E552E7CFD9FF1200D9CF22
:1014C000E6FFE1CFD9FF030EE126D950010FE96E07
:1014D000DACFEAFFA00EEE6E000EED6EDF6A100EA0
:1014E000DF5C71E2010EDBCFE9FF020EDBCFEAFF2A
:1014F000EF500F0B146EFE0EDB50145C5DE1010E1D
:10150000DBCFE9FF020EDBCFEAFFEF50200B02E159
:10151000070E60D0DF50156A800F146E000E152282
:10152000010E14C0DBFF020E15C0DBFF010EDBCF86
:10153000E9FF020EDBCFEAFFFD0EDB50EF12DF50BA
:10154000156A900F146E000E1522010E14C0DBFFF9
:10155000020E15C0DBFFFD0EDBCFE6FF010EDBCF79
:10156000E9FF020EDBCFEAFFEF50E552E71403E19B
:10157000000E30D021D0DF50156AA00F146E000E7F
:101580001522010E14C0DBFF020E15C0DBFF0F0E8B
:10159000146E010EDBCFE9FF020EDBCFEAFF145021
:1015A000EF16010EDBCFE9FF020EDBCFEAFFEF8A79
:1015B00078EC08F0000E0ED0DF2A010EDB2A020EB6
:1015C00001E3DB2A8CD7100EDF5C02E1030E02D0B0
:1015D000000E00D0146E030EE15C02E2E16AE552F7
:1015E000E16E1450E552E7CFD9FF1200D9CFE6FFE4
:1015F000E1CFD9FF030EE126D950010FE96EDACF12
:10160000EAFFA00EEE6E000EED6EDF6A100EDF5CDC
:1016100042E2010EDBCFE9FF020EDBCFEAFFEF5023
:101620000F0B0001605D30E1DF50156A800F146E12
:10163000000E1522010E14C0DBFF020E15C0DBFFE9
:10164000FE0EDB1C146E010EDBCFE9FF020EDBCFBA
:10165000EAFF1450EF16DF50156A900F146E000E5B
:101660001522010E14C0DBFF020E15C0DBFFFE0EBB
:10167000DB1C146E010EDBCFE9FF020EDBCFEAFFAD
:101680001450EF16000E09D0DF2A010EDB2A020EDD
:1016900001E3DB2ABBD7000E00D0146E030EE15C21
:1016A00002E2E16AE552E16E1450E552E7CFD9FF5C
:1016B0001200D9CFE6FFE1CFD9FF030EE126D950C2
:1016C000010FE96EDACFEAFFA00EEE6E000EED6EAE
:1016D000DF6A100EDF5C3EE2010EDBCFE9FF020E97
:1016E000DBCFEAFFEF500F0B146EFE0EDB50145CE5
:1016F0002AE1010EDBCFE9FF020EDBCFEAFFEF505C
:10170000E00B02E1070E2DD0DF50156A800F146E3A
:10171000000E1522010E14C0DBFF020E15C0DBFF08
:10172000010EDBCFE9FF020EDBCFEAFFEF50E66EE2
:10173000FC0EDBCFE9FFFD0EDBCFEAFFE552E75001
:10174000EF6E000E0ED0DF2A010EDB2A020E01E33F
:10175000DB2ABFD7100EDF5C02E1030E02D0000EC1
:1017600000D0146E030EE15C02E2E16AE552E16E24
:101770001450E552E7CFD9FF1200D9CFE6FFE1CFF1
:10178000D9FF030EE126D950010FE96EDACFEAFF47
:10179000A00EEE6E000EED6EDF6A100EDF5C5CE2F6
:1017A000010EDBCFE9FF020EDBCFEAFFEF500F0B9C
:1017B0000001605D4AE1F29CDF50156A900F146EE3
:1017C000000E1522010E14C0DBFF020E15C0DBFF58
:1017D000010EDBCFE9FF020EDBCFEAFFFE0EDBCF0F
:1017E000EFFFDF50156A800F146E000E1522010EF8
:1017F00014C0DBFF020E15C0DBFFFE0EDBCFE6FFE1
:10180000010EDBCFE9FF020EDBCFEAFFEF50E5521E
:10181000E71418E1DF50156AA00F146E000E1522B0
:10182000010E14C0DBFF020E15C0DBFF800E146E2C
:10183000010EDBCFE9FF020EDBCFEAFF1450EF26EB
:1018400078EC08F0F28C000E0ED0DF2A010EDB2AB5
:10185000020E01E3DB2AA1D7100EDF5C02E1030ECA
:1018600002D0000E00D0146E030EE15C02E2E16AC9
:10187000E552E16E1450E552E7CFD9FF1200F28E27
:10188000F28C1200F29EF29C1200F28EF28C120088
:10189000F29EF29C1200F28C1200F29C120064C0C4
:1018A000E0F3000164831200000164A504D0E0C3EA
:1018B00064F078EC08F0E0C364F01200EA6AE96AC8
:1018C000E16AE26AF86AFA6AFF0EEE6AE962FDD737
:1018D000EE6AEA6AFC6A1F0EFC2AFF6AFE6AFD6A6B
:1018E000FC62FAD7FC6AFC2A880ED56E9D6AA06A53
:1018F000D06A9F6AA26A800EF16ED08EA00EF26E40
:10190000F2840001010EFC6E616B636F606BEA6A2A
:10191000B00EE96EF86ACAC3F7FFC9C3F6FF090043
:10192000F550D8B429D0F5CFEFFF0900F550E16E9E
:101930000900F550E26EE550AD0EE56EDE0EE76E85
:10194000E650E65009000900E9980900F550EF2635
:101950000900F550EF260900F550E126E86AE22279
:101960000900E550AD0EE56EDE0EE76EE92AE98866
:10197000D6D70001636B632BEA6AB00EE96E635140
:10198000D8B42CD0636B0F0EEF14616FD8B4F4D7BA
:10199000EFCF62F00F0EEC14616301D0F4D76165F4
:1019A00001D0F1D7ED50EE6E62C0EFFFE998EDCFB8
:1019B00062F0EF5062C0EEFFEF6EE99AEDCF62F099
:1019C000EF5062C0EEFFEF6EE988EDCF62F0EF50AE
:1019D00062C0EEFFEF6EE98A632BD5D700016491F8
:1019E0006051D8B430D0EA6A9F0EE96EE92A1F0E22
:1019F000EF146063FBD7EF9C606BE9880F0EEF1468
:101A0000616F0F0EEC1461631ED000D0EDCF62F059
:101A1000EF5062C0EEFFEF6EE998EDCF62F0EF504D
:101A200062C0EEFFEF6EE99AEDCF62F0EF5062C058
:101A3000EEFFEF6EE988EDCF62F0EF5062C0EEFF8F
:101A4000EF6EE98ADED7EA6A9F0EE96EE92AEFAA0D
:101A500074D0EFBE72D00001EF8C1F0EEF14606FD8
:101A600000016481F86ACAC3F7FFC9C3F6FF060E16
:101A7000F626E86AF722000160510900F56201D0FC
:101A800005D0080EF626E86AF722F6D7060EF65EAF
:101A9000E86AF75A0900F550E96E0900F550EA6E58
:101AA0000900F550666F0900F550676FA8EF0DF05B
:101AB0000001E5CF61F0E5CF61F0FC6A0500E5507B
:101AC000FF6EE550FE6EE550FD6EFC506163F6D78B
:101AD000EA6A1F0EE96EE5CFEDFFE950D8A8FBD703
:101AE000E5CFF3FFE5CFF4FFE5CFF5FFE5CFF6FF58
:101AF000E5CFF7FFE5CFF8FFE5CFEAFFE5CFE9FF58
:101B0000E5CFDAFFE5CFD9FFE5CFE0FFE5CFE8FF8E
:101B1000E5CFD8FFF28C1000E9CFE1FFE9CFD9FF84
:101B2000EACFE2FFEACFDAFFFC6AFC2A6651FD6EDB
:101B30006751FE6EFF6AF28C1000AF0EE95C86E121
:101B4000D5C3E2FFD6C3E1FF0001F28CFC6AFCD7EB
:101B5000E9CFD8F3EACFD9F3EDCFE8FFAD0EEDCF63
:101B6000E1FFE162F5EF0DF0DE0EEDCFE1FFE162A6
:101B7000F5EF0DF0F86ACAC3F7FFC9C3F6FF060E0A
:101B8000F626E86AF722000160510900F56201D0EB
:101B900005D0080EF626E86AF722F6D7D8C3E9FF83
:101BA000D9C3EAFF0900F550E926E86AEA220900EC
:101BB000EDCFE8FFAD0EEDCFE1FFE16207EF0EF0F4
:101BC000DE0EEDCFE1FFE16207EF0EF0D8C3E9FFD3
:101BD000D9C3EAFFEECFE1FFEECFE2FFE150D8A498
:101BE00067D7E250D8B498D763D7EA6A9F0EE96EF8
:101BF000E92A1F0EEF146063FBD7EF9AEF9CEF9E6C
:101C000065C0E8FFF00B6025E8CF65F0E7D6EA6A2B
:101C10009F0EE96EE92A1F0EEF146063FBD7EF9A5F
:101C2000EF9CEF9E65C0E8FFE838F00B6025E838D0
:101C3000E8CF65F0D3D6F86ACAC3F7FFC9C3F6FF89
:101C4000060EF626E86AF722000160510900F562E7
:101C500001D005D0080EF626E86AF722F6D7060E60
:101C6000F65EE86AF75A0900F550E96E0900F5508A
:0C1C7000EA6EE86AEE6EEF6EEEEF0CF02C
:102000003CEC15F0FB0EDBCFF3FFDB06F3500009D1
:102010000AE08AEC15F0FA0EF5EC15F0F3E1151C68
:10202000F1E1010E01D0000E6BEF15F03CEC15F064
:102030003B0EE12402E3E168E652E16E010EDB6A49
:10204000020EDB6AF90EDBCFF6FFFA0EDBCFF7FFED
:10205000FB0EDBCFF8FF0800F550DF6EDF5002E12A
:102060008FEF14F0250EDF5C02E082EF14F0030E18
:10207000DB6A040EDB6A050EDB6A060EDB6A070EFE
:10208000DB6AA4EC14F02D0EDF5C0CE02B0EDF5CA1
:1020900009E0200EDF5C06E0230EDF5C03E0300E7B
:1020A000DF5C1AE1DF50300A14E0130A0FE0030A84
:1020B0000AE00B0A05E0060AE4E1030EDB80E1D743
:1020C000030EDB82DED7030EDB84DBD7030EDB8659
:1020D000D8D7030EDB88D5D72A0EDF5C1BE1A0EC36
:1020E00014F0EEEC14F010E0030EDB8006680768D5
:1020F000130EDBCF0BF0140EDBCF0CF04EEC19F00F
:10210000040E04C0DBFF03D0130ED7EC14F0A4ECD4
:1021100014F00BD0090EDB6A45EC15F003E0B9ECC6
:1021200015F0FAD7090ED7EC14F0030EDBB0DB98EC
:102130002E0EDF5C1BE1A4EC14F02A0EDF5C0BE139
:10214000A0EC14F0EEEC14F003E1130E29EC15F002
:10215000A4EC14F00BD0090EDB6A45EC15F003E09B
:10216000B9EC15F0FAD7090E29EC15F0680EDF5C12
:1021700007E1A4EC14F0680EDF5C1DE1030E18D03B
:10218000740EDF5C17E07A0EDF5C14E0480EDF5C53
:1021900006E0540EDF5C03E05A0EDF5C02E1020E43
:1021A00007D06C0EDF5C03E06A0EDF5C04E1010E19
:1021B0007CEC15F0C9DBDF506E0A01E17FD31E0A0B
:1021C00001E192D1200A01E18FD13F0A01E149D119
:1021D0001A0A01E146D10D0A01E143D1200A01E1C9
:1021E00040D13A0A01E13DD1200A01E13AD1260A63
:1021F00001E135D10D0A01E132D11A0A01E1D9D04C
:10220000200A4AE0300A1FE0460A0EE0250A01E0F3
:1022100083D3D950F90FE96EFF0EDA20EA6E010E72
:10222000EE5E000EEE5AEE5A8AEC15F0250EE66EC2
:1022300095DB03E1151C01E169D386EC15F001E2A1
:102240006BD3DB2A69D3080EDB6A040EDB5001086E
:1022500006E2040EDB044EEC15F0DB508BDB080EBF
:10226000DB5009E0030EDB50010B05E172DB01E0FE
:102270004DD3080EDB6A64DBEFCFDFFFFEEC15F019
:1022800003E1151C01E142D386EC15F001E3DB2AE2
:1022900060DB01E141D33AD3070EDB5002080FE1C6
:1022A000CAEC15F0030E91EC15F00E0EEECFDBFF2D
:1022B0000F0EEECFDBFF100EEECFDBFF20D0F70EC0
:1022C000DBCF17F0F80EDBCF18F0020E175E000E12
:1022D000185AF70E17C0DBFFF80E18C0DBFF17C047
:1022E000E9FF18C0EAFF81EC15F0166A0E0E14C063
:1022F000DBFF0F0E15C0DBFF100E16C0DBFF0E0E4E
:10230000DBCFE6FF0F0EDBCFE6FF100EDBCFE6FFE5
:1023100098EC18F0E552E552E552130E05C0DBFFCC
:10232000140E06C0DBFF060EDB5005E0130EC5ECF5
:1023300015F001E26ADBE9EC15F002E2130E37DB7F
:10234000ACEC15F006E0040EC5EC15F002E2050E4B
:102350002EDB030EDBB005D0FCDA01E0D7D2080E8D
:10236000DB6A090EDB6A0E0EDBCFF6FF0F0EDBCF4A
:10237000F7FF100EDBCFF8FF0800F550DF6EDF50DF
:1023800014E0EFEC15F011E2FEEC15F003E1151C82
:1023900001E1BCD2BBDB01E3DB2A090EDB2AD95009
:1023A0000E0FE96E000ECBDBE7D7D3DA01E1B4D232
:1023B000ADD2C6DA110EEECFDBFF120EEDCFDBFF92
:1023C000110EDBCFE6FF120EDBCFE6FF8AEC18F032
:1023D000E552E552130EF3CFDBFF140EF4CFDBFF13
:1023E000060EDB5004E0130ED0DB01E20EDBE9EC5D
:1023F00015F002E2130EDBDAAFDB05E0040EC5DBFD
:1024000002E2050ED4DA030EDBB005D0A2DA01E059
:102410007DD2080EDB6A090EDB6A110EDBCFE9FF05
:10242000120EDBCFEAFFEFCFDFFFDF5014E0D7DB88
:1024300012E2E4DB03E1151C01E168D267DB01E392
:10244000DB2A090EDB2A110EDB2ADBCFE9FF120E95
:10245000E8E3DB2AE6D77DDA01E15ED257D2030E4C
:10246000DB8E070EDB0410E195DB040E5ADB0A0E4F
:10247000EECFDBFF0B0EEECFDBFF0C0EEECFDBFF64
:102480000D0EEECFDBFF6CD0070EDB5003082CE106
:10249000030EDBAE0DD0B2DA020E76DAEFCF14F017
:1024A000156A166A176A14AE39D01568166835D0E1
:1024B000F70EDBCF15F0F80EDBCF16F0020E155E2F
:1024C000000E165AF70E15C0DBFFF80E16C0DBFF24
:1024D00015C0E9FF16C0EAFFEFCF14F00A0E14C0D2
:1024E000DBFF0B0EDB6A38D0070EDB50020809E178
:1024F000030EDBAE04D059DB16AE10D00ED055DB88
:102500000DD0030EDBAE12D079DA020E3DDAF9DA25
:10251000166A176A15AE02D016681768E2DA0C0E52
:1025200016C0DBFF0D0E17C0DBFF1AD0F70EDBCF96
:1025300016F0F80EDBCF17F0020E165E000E175ADB
:10254000F70E16C0DBFFF80E17C0DBFF16C0E9FF61
:1025500017C0EAFFD6DAC5DA0C0EDB6A0D0EDB6AAD
:10256000060EDB5005E1010EF36E050EF3CFDBFF27
:10257000150EDB6A160EDB6AD950370F146E000E8B
:10258000DA20156E390E14C0DBFF3A0E15C0DBFFE2
:10259000380EDB6A080EDB6A0A0EAEDADF50780A04
:1025A00012E0200A10E0280A0CE0200A0AE03F0AA4
:1025B00006E00D0A02E0200A08E1020E05D0080E2E
:1025C00003D0080EDF26100E97DA030EDBBE02D012
:1025D000DB92DB94DB50800B24E08ADAD890030E88
:1025E000EB50000A08E6000EEE5C000EEE58000EFE
:1025F000EE58000EEE5815E213DA09680A680B6807
:102600000C6848EC1CF00A0E00C0DBFF0B0E01C08A
:10261000DBFF0C0E02C0DBFF0D0E03C0DBFF2D0E37
:1026200008D0030EDBA202D02B0E03D0DBA408D00F
:10263000200EF36E170EF3CFDBFF150EDB2A02D050
:10264000170EDB6A050EDB5003E1B7D901E189D033
:10265000EE0E146E2F0E156E000E166E070EDBCFEB
:1026600017F0186A196A1A6A17C009F018C00AF038
:1026700019C00BF01AC00CF0D3D9B3EC1CF01450F5
:102680000024F36E15500120F46E16500220F86EEF
:10269000F4CFF7FFF3CFF6FF0800090EF5CFDBFF0D
:1026A000580EDF5C0FE1610EF36E090E7BD90AE371
:1026B000200E146E090EDBCFE7FF1450E75E090E03
:1026C000E7CFDBFF070EDBCF14F0156A166A176A37
:1026D0000FDA14C009F015C00AF016C00BF017C0CD
:1026E0000CF0EECF04F0EECF05F0EECF06F0EFCF1A
:1026F00007F0B3EC1CF007C0EDFF06C0EDFF05C00E
:10270000EDFF04C0EFFF390EDBCFE9FFDB063A0E29
:10271000DBCFEAFF01E2DB06090EDBCFEFFF150E90
:10272000DB2A4BD995E1030EDBA61DD06F0EDF5CD3
:1027300006E1C1D918E3150EDB285BDA14D0780E58
:10274000DF5C09E0580EDF5C06E0620EDF5C03E050
:10275000420EDF5C08E1020EF36E160EF3CFDBFFD4
:1027600002D0150EDB6A030EDB50100B0EE0040ED8
:10277000DBCF14F0050EDB50D880145406E2060EB1
:10278000DB5003E1040EDB5034DA95D90AE2050E82
:10279000DBCFE7FF150EDB50E75E050EE7CFDBFF73
:1027A00002D0050EDB6A040EDBCF14F0160E45D9FD
:1027B000D880145414E2160EDBCFE6FF150EDBCFE3
:1027C000E6FF040EDBCFE6FF050EDB50E552E75CCB
:1027D000E552D880E754E552D880E7545FD9030E1C
:1027E000DB50010B0BE1080EDB5008E0B2D801E032
:1027F0008DD0080EDB50BED8080EDB6A170EDB50FA
:1028000007E088D9170EF1D903E1151C01E17ED04C
:10281000160EDB5016E07ED9300EE66E9FD802E130
:10282000151C74E077D9DFCFE6FF0CEC19F0E55208
:10283000E552E552F4CF15F00001F31C02E1151C3E
:1028400065E0050EDBCF14F0160EDB50D880145473
:1028500009E2050EDBCFE7FF160EDB50E75E050E43
:10286000E7CFDBFF300EE66E050ECBD94FE1390E18
:10287000DB2ADBCFE9FF3A0E01E3DB2ADBCFEAFFFD
:10288000090EEFCFDBFFDB500EE044D9090EADD9C6
:1028900002E1151C3BE0390EDB2ADBCFE9FF3A0EE3
:1028A000EDE3DB2AEBD755D831E1160EDBCFE6FF9F
:1028B000080EC3D8E552E7245DD82ED0070EDB50B2
:1028C000030A1CE0010A14E0030A07E07BD9DBCF0E
:1028D000EEFF020EDBCFEDFF1FD0F5D8196A17AE61
:1028E00002D0186819682CD8BCD819C0EEFF14D0D3
:1028F000EAD817BE186824D8B4D80ED063D9DBCF75
:10290000EFFF0AD07BD905E1151C03E1F368F468F9
:1029100010D0FCD801E3DB2A79D92BEF10F0010E9F
:10292000DBCF14F0020EDBCF15F014C0F3FF15C09F
:10293000F4FF3B0EE15C02E2E16AE552E16ECBD0CE
:1029400029D9020E91EF15F061D90800F550DF6E1C
:102950001200200EE66E080E01EF16F00CEC19F0D6
:10296000E552E552E552F3CF14F0F4CF15F0000133
:10297000F31C1200146E156AD950010F4DD9145072
:10298000EE261550ED221200185E000E195AF70EB1
:1029900018C0DBFFF80E19C0DBFF18C0E9FF19C033
:1029A000EAFF1200DBCFF4FFF350F45C1200DB50BF
:1029B000E76E040EE7CFDBFF12000A0EDBCF14F048
:1029C0000B0EDBCF15F00C0EDBCF16F00D0EDBCFB0
:1029D00017F014501510161017101200130EEECF2A
:1029E000DBFF140EEDCFDBFF130EDBCF14F0140E64
:1029F000DBCF15F00001800E15141200F70EDBCFAF
:102A000018F0F80EDBCF19F01200050EDB50E66E61
:102A1000D950130F01D9E552E750EE6EED6A12005E
:102A20000A0EDBCF04F00B0EDBCF05F00C0EDBCF74
:102A300006F00D0EDBCF07F01200DBCFE6FF150E20
:102A4000DBCFE6FF050EDB50E552E724E552E72435
:102A50001200DB50CED8010EF36E060EF3CFDBFF73
:102A60001200EE50EFCFEAFFE96E16C0EEFF17C07E
:102A7000EEFF18C0EEFF1200D9CFE6FFDACFE6FF77
:102A8000E1CFD9FFE2CFDAFF1200DFCFE6FFE66A3F
:102A9000ECEC19F0E552E552F3501200E76E080E27
:102AA000E7CFDBFF1200EECF14F0EECF15F0EFCF43
:102AB00016F0176A1200050EDBCF14F0150EDB506E
:102AC000D88014541200010EDBCF16F0020EDBCFBB
:102AD00017F0186A1200E552E5CFDAFFE7CFD9FF09
:102AE00012000A0E14C0DBFF0B0E15C0DBFF120034
:102AF000D9500A0F0CEF16F0F36E070EF3CFDBFF81
:102B00001200EECF14F0EFCF15F01200010EDB2A09
:102B1000020E1200FC0EDBCFE6FFFD0EDBCFE6FF60
:102B20001200145E000E155AF70E14C0DBFFF80EEB
:102B300015C0DBFF14C0E9FF15C0EAFF1200DA2060
:102B4000EA6EEF2AEECFF6FF000EEF22EECFF7FF90
:102B5000EF22EECFF8FF1200040EDBCFE6FF130EDC
:102B6000DB50E552E75C9ADFDB5004DF060EDB50FA
:102B70001200090EDB500A0DF350DF24D00FE76E70
:102B8000090EE7CFDBFFA4EF14F0DB50F36E050E68
:102B9000D2EF14F0F70EDBCF14F0F80EDBCF15F008
:102BA0001200DFCFE6FFAEEF14F028DF030EECDEFD
:102BB00053EF15F000EC10F0E552E552E552E55206
:102BC00000091200BDDEEE50EFCFEAFFE96E010E04
:102BD0001200130EDB50F36E040ED2EF14F0040E4D
:102BE000DB50F36E090ED2EF14F0DBCFE6FFAEEF51
:102BF00014F0E76E050EE7CFDBFF12008BDFD1EF9D
:102C000015F0DBCFE6FF86DFDAEF15F0D950F90FCC
:102C1000E96EFF0E9FEF15F0E96E000EDA20EA6E06
:022C20001200A0
:0E2C2200D9CFE6FFE1CFD9FF590EE126FD0E16
:102C3000DBCF06F0FE0EDBCF07F0150E06C0DBFF84
:102C4000160E07C0DBFF170EDB6A180EDB6A170EC5
:102C5000DBCF14F0180EDBCF15F0D00E145C070E8E
:102C6000155801E316D1050EDE6E150EDE6EDE6A16
:102C7000DD6ADD52DD52040EDB6A050EDB6A060EEC
:102C8000DB6A070EDB6A150EDBCFE9FFDB2A160EC7
:102C9000DBCFEAFF01E3DB2A140EEFCFDBFFEF50BF
:102CA00001E1B5D0040EDBCF14F0050EDBCF15F03B
:102CB000060EDBCF16F0070EDBCF17F0050E1F0B4D
:102CC00002E064D9FEE1186A196A1A6AF80E1B6EEE
:102CD0006ED9EE501816EE501916EE501A16EE5028
:102CE0001B161B0ED8901B321A3219321832E80606
:102CF000F9E118501426195015221A5016221B50AB
:102D000019D955D9EECF14F0EECF15F0EECF16F05D
:102D1000EFCF17F0050E1F0B02E038D9FEE10C0EC5
:102D200014C0DBFF0D0E15C0DBFF0E0E16C0DBFF5F
:102D30000F0E17C0DBFF0C0EDBCF14F00D0EDBCF38
:102D400015F00E0EDBCF16F00F0EDBCF17F0D9CF3C
:102D5000E9FFD2D8080EDBCF14F0090EDBCF15F057
:102D60000A0EDBCF16F00B0EDBCF17F020D9EE509A
:102D7000145CEE501558EE501658EE50175802E3FA
:102D8000A4D801E2E5D8C7D8100EDBCF14F0110E9D
:102D9000DBCF15F0120EDBCF16F0130EDBCF17F0E2
:102DA000D950040FE96EF9D8C5D8E8D80C0FE96EF0
:102DB000A3D8E4D801D91450EE5C1550EE58165043
:102DC000EE581750EE5802E380D801E2C1D8A3D8DC
:102DD000EED80C0EDBCFEEFF0D0EDBCFEEFF0E0EAE
:102DE000DBCFEEFF0F0EDBCFEEFFD950100FE96EF9
:102DF000DACFEAFF040EEECFDBFF050EEECFDBFFEE
:102E0000060EEECFDBFF070EEECFDBFF3CD7D9CFB0
:102E1000E9FFA9D8D950040FE96EA5D8F60E146EB3
:102E2000320E156E166A14C0E6FFE66E16C0E6FF97
:102E3000D950190FE66E000EDA20E66E96EC19F006
:102E4000176E0D0EE15E1750D950190F146E150E46
:102E500014C0DBFF160EDACFDBFF150EDBCFE9FF68
:102E6000160EDBCFEAFF140EEFCFDBFFDB500AE0DC
:102E7000140EDB50300806E1150EDB2A160EEDE3CA
:102E8000DB2AEBD7170EDB2A180E01E2E0D6DB2A8D
:102E9000DED6150EDBCFE6FF160EDBCFE6FFFB0E10
:102EA000DBCFE6FFFC0EDBCFE6FF69EC18F0E55266
:102EB000E552E552E552590EE15C02E2E16AE55263
:102EC000E16EE552E7CFD9FF12000C0EDBCF18F010
:102ED0000D0EDBCF19F00E0EDBCF1AF00F0EDBCF8D
:102EE0001BF0D95069D81850EE5C1950EE581A50A2
:102EF000EE581B50EE58120050D81722080E14C07E
:102F0000DBFF090E15C0DBFF0A0E16C0DBFF0B0E40
:102F100017C0DBFF1200D9504FD80C0EEECFDBFFED
:102F20000D0EEECFDBFF0E0EEECFDBFF0F0EEECF62
:102F3000DBFF12001722100E14C0DBFF110E15C0AC
:102F4000DBFF120E16C0DBFF130E17C0DBFF1200F3
:102F5000D950100FE96EDACFEAFFEE2A000EEE220A
:102F6000EE22EE221200DACFEAFFEECFE6FFEECF3E
:102F7000E6FFEECFE6FFEFCFE6FF1200140EDBCF49
:102F800014F0156A166A176AD9501200D8901436D0
:102F9000153616361736E8061200DACFEAFFEE507D
:102FA0001426EE501522EE501622EE501200D9CF04
:102FB000E9FFDACFEAFF1200080FE96EDACFEAFF85
:022FC0001200FD
:0E2FC200036A026A100EE76ED89006360736D4
:102FD000023603360B50025C0C50035805E30B50CD
:0E2FE000025E0C50035A062AE72EF0D71200AC
:022FEE00303180
:0F2FF000323334353637383961626364656600D1
:10300000D8CFE4FFE0CFE4FFE46EDACFE4FFE2CF15
:10301000DAFFE9CFE4FFEACFE4FFF6CFE4FFF7CF32
:10302000E4FFF5CFE4FFF3CFE4FFF4CFE4FFFACF02
:10303000E4FF00EE00F0140EE80403E3EECFE4FF3B
:10304000FBD700EE14F0080EE80403E3EECFE4FF34
:10305000FBD7E6524FEC0CF0ABA202D0AB98AB889A
:10306000F2A402D09BEC04F09EA803D008EC1CF064
:103070009E989EAA03D09E9A23EC1CF054EC0CF070
:10308000E55200EE1BF0080EE80403E3E5CFEDFF88
:10309000FBD700EE13F0140EE80403E3E5CFEDFFD9
:1030A000FBD7E5CFFAFFE5CFF4FFE5CFF3FFE5CFA0
:1030B000F5FFE5CFF7FFE5CFF6FFE5CFEAFFE5CF78
:1030C000E9FFE5CFDAFFE550E5CFE0FFE5CFD8FF38
:0230D0001000EE
:0E30D200D9CFE6FFDACFE6FFFA0EE3CFD9FF43
:1030E000FB0EE3CFDAFFFC0EE3CFE9FFFD0EE3CFEB
:1030F000EAFFE9CFF3FFEACFF4FFDECFEFFFEE66A2
:10310000FCD7FF0EE3CFDAFFE552FF0EE3CFD9FF86
:10311000E5521200FE0EE3CFE9FFFF0EE3CFEAFF18
:10312000F36AF46AEE5203E0F34AF42AFBD7120082
:10313000FF0EE3CFF8FFE552FF0EE3CFF7FFE552B6
:10314000FF0EE3CFF6FFE552E66AE66AE66A09009B
:10315000F55209E0FD0EE32A05E1FE0EE32A02E145
:10316000FF0EE32AF4D7FD0EE3CF05F0FE0EE3CF0A
:0A31700006F0FF0EE3CF07F0120097
:06317A00120EF66E330E8A
:10318000F76E000EF86E03010900F550D06F0900CC
:10319000F550D16F03E1D06701D03DD00900F55063
:1031A000CB6F0900F550CC6F0900F550CD6F0900C9
:1031B0000900F550E96E0900F550EA6E09000900B2
:1031C0000900F550CE6F0900F550CF6F09000900D6
:1031D000F6CFD2F3F7CFD3F3F8CFD4F3CBC3F6FFC8
:1031E000CCC3F7FFCDC3F8FF0301CE5302E1CF53A9
:1031F00007E00900F550EE6ECE07F8E2CF07F9D7E9
:10320000D2C3F6FFD3C3F7FFD4C3F8FF0301D0073F
:08321000000ED15BBFD71200D4
:08321800D9CFE6FFDACFE6FF93
:10322000E1CFD9FFE2CFDAFFFB0EDBCF14F0FC0ECB
:10323000DBCF15F00001800E15141AE1FB0EDBCF79
:10324000E9FFFC0EDBCFEAFFEECFF3FFEDCFF4FF9B
:10325000EE2A000EEF22F3CFE9FFF4CFEAFFFD0ED6
:10326000DBCFEFFFEF50156AF36E15C0F4FF10D0FF
:10327000FB0EDB50FE0806E1FD0EDBCFE6FFF7ECB0
:103280001CF005D0FD0EDBCFE6FF03EC00F0E552AD
:0C329000E552E5CFDAFFE7CFD9FF1200CE
:04329C0007C013F064
:1032A00006C012F006500B02F4CF05F0F3CF04F085
:1032B00007500C02F4CF07F0F3CF06F00B02F350E7
:1032C0000526F4500622E86A072212500C02F35039
:1032D0000526F4500622E86A07220CAE74EF19F0B6
:1032E0001250065E1350075A13AE000C0B50065EC8
:0632F0000C50075A000C0F
:0732F600256C78256C7800BF
:0232FE001200BC
:10330000DACFE4FFE652F2B2F292E552E5CFDAFF0D
:023310001100AA
:0E3312000200FC330000DA030000030000009C
:0C3320000A3A000093030000380000008F
:04332C00D9CFE6FF10
:10333000DACFE6FFE1CFD9FFE2CFDAFFE652E6527D
:10334000E652E652D950F90F146EFF0EDA20156ED0
:10335000020E14C0DBFF030E15C0DBFF020EDBCF35
:10336000E6FF030EDBCFE6FFF90EDBCFE6FFFA0E3A
:10337000DBCFE6FFFB0EDBCFE6FFD950FC0FE66E9E
:10338000FF0EDA20E66E16EC10F0146E070EE15C0C
:1033900002E2E16AE552E16E1450F3CFDEFFF4CFB2
:1033A000DDFFFC0EDBCFE9FFFD0EDBCFEAFFEF6AAE
:1033B000DECF14F0DDCF15F014C0F3FF15C0F4FF1D
:1033C000040EE15C02E2E16AE552E16EE552E5CF0E
:0833D000DAFFE7CFD9FF12007C
:0833D800F36AF46AFF0EE12420
:1033E000E96EFF0EE220EA6EED6607D02F0EEF6465
:0C33F00004D03A0EEF6001D0F32A120066
:0333FC000030306E
:06340000D7EF1CF01200E2
:0A340600BDD91E0EB3D9DBCF14F0C0
:10341000143405E269D9E9BEEA6880D9F7D7030E0A
:10342000E15C02E2E16AE552E16E98D10301240E0B
:10343000006F460E97D9AC8A1200A3D93C0E99D9D9
:10344000DBCF14F0143405E24FD9E9BEEA6866D93F
:10345000F7D7030EE15C02E2E16AE552E16E7ED14C
:1034600077D9FE0EDB50300FDF6EDFCF14F0000E89
:10347000E76E1418E8AE02D0143403D0E750D880B9
:1034800014540CE2DFCFE9FFEA6AE9BEEA68000EF5
:10349000E926030EEA22EF6ADF06E7D7E5525ED19E
:1034A0000301240E006F450E016F4E0E026F440E95
:1034B000036F3A0E046F12004BD9020EDF6E470EF7
:1034C0000301415D0BE10301010EDA6F400EE66E70
:1034D000020EE66E5FEC0AF0E552E552440E03017F
:1034E000415D2FE1F9D8EFCF86F3F6D8EFCF87F320
:1034F0002C0E0301875D01E0DF2AEED8EFCF88F3C1
:10350000DF2AEAD8EFCF8DF3E7D8EFCF8EF32C0E7A
:1035100003018E5D01E0DF2ADFD8EFCF89F3DCD82D
:10352000EFCF8AF3D9D8EFCF8BF3D6D8EFCF8CF388
:103530000301925106E1D0D8EFCF8FF3CDD8EFCF72
:1035400090F3410E0301415D01E18D8CE55206D1FE
:10355000FFD80301240E006F4C0E04D9DF6A0A0E57
:10356000DF5C03E2AC8ADF2AFAD7E552F7D0F0D865
:103570000301240E006F520EF5D8DF6A0A0EDF5CDD
:1035800003E2AC8ADF2AFAD7E552E8D0300E030115
:10359000DB5D6AE14B0E03018F5D05E18D8E03015A
:1035A000010E926F61D04E0E8F5D0BE1450E905D66
:1035B00006E0570E905D03E02C0E905D55E18D8482
:1035C00053D0530E8F5D3DE18D80450E905D13E12C
:1035D000330E03018D5D03E0300E8E5D3FE1300E52
:1035E00003018A5D39E0320E8A5D36E0C0DF0301F7
:1035F000450EDB6F39D0570E905D0FE1310E0301A0
:103600008D5D03E0300E8E5D29E1300E03018C5D8F
:1036100023E0320E8C5D28E11FD02C0E905D24E15A
:10362000320E03018D5D05E0300E8E5D02E09FDFFE
:103630001BD0300E03018B5D0FE0320E8B5D14E169
:103640000BD0450E8F5D0CE18D82330E03018D5D35
:1036500005E1300E8E5D02E1E9DE06D079DF04D0AF
:10366000570E8F5D01E18D80450E0301DB5D0AE1A0
:10367000300E03018A5D03E0320E8A5D02E1A8EF9D
:103680001AF0D4DE120064D8DF6A9D8A03018151EA
:1036900006E012DF0301816B0301010E856F030158
:1036A0008251F3E10301DA05F0E103018551EDE018
:1036B000000EE66EE66A68EC09F0E552E552000994
:1036C000E4E164DF0301856B000EE66EE66AF4EC6C
:1036D00009F0E552E552D9D7DF50DF2AEA6A400FF8
:1036E000E96E030EEA221200DECF14F0DDCF15F0F2
:1036F0000A0E0B6E0C6A14C006F015C007F0E1EC60
:1037000017F002C014F003C015F0300E1426000E9E
:103710001522020EDBCFE9FFEA6A1200000EE9264D
:10372000030EEA2214C0EFFFD9CFE9FFDACFEAFF98
:103730000A0E0B6E0C6AEECF06F0EDCF07F0E1EC4F
:1037400017F006C0EEFF07C0EDFF020EDB06120009
:10375000D9CFE6FFE1CFD9FFE6521200E552E7CF1D
:10376000D9FF1200016F3A0E026F0301030E846F3E
:103770001200DE6EDD6A010EF36E020EF3CFDBFF88
:103780001200D9CFE6FFE1CFD9FF030EE1261200E8
:103790000301240E006F530E016F3A0E026F0301F6
:1037A000030E846F1200D9CFE6FFE1CFD9FFE652B6
:1037B000DF6A320EE66EE66AE66EE66A010EE66ED5
:1037C00080EC00F0146E050EE15E14509D8A800EB0
:1037D000E66EBDEC0BF0E552800EE66EF6EC0AF0FC
:1037E000E5520301DA05F2E1000EE66EE66A68ECE6
:1037F00009F0E552E5520009E9E1CADFAC8A8D78AB
:10380000000EE66EE66AF4EC09F0E552E552DED70A
:1038100003018451E76E8219E8AE02D0E73402D08A
:10382000E750825D0DE282C3E9FFEA6AE9BEEA6819
:10383000000EE926030EEA22EF50AD6E822B120035
:10384000AC9A826B1200D9CFE6FFE1CFD9FFE652E6
:10385000AE50DF6E240EDF5C03E10301836B06D004
:103860003A0EDF5C03E10301010E816F83C3E9FFC0
:10387000EA6AE9BEEA68400EE926030EEA22DFCFD3
:10388000EFFF0301832BE552E552E7CFD9FF12008A
:1038900004500902F3CF00F0F4CF01F00A02F35014
:1038A0000126000EF420026E04500B02F350022693
:1038B000000EF420036E04500C02F3500326055052
:1038C0000902F3500126F4500222000E0322055093
:1038D0000A02F3500226F450032205500B02F35063
:1038E000032606500902F3500226F4500322065024
:1038F0000A02F350032607500902F3500326120070
:10390000FC6A0301DF6B06D8DFC3E6FFCBEC08F0EF
:10391000E552FAD7EA6AE96A0301D80EDD6FD90EDB
:10392000DE6F080ED56EDEC3D7FFDDC3D6FF956A06
:10393000966A836A846A150EAF6E040EAC6E900EA2
:10394000AB6EF26A9D889D8A9E6AF28CF28E12009E
:10395000120003D002D012001200D9CFE6FFE552C8
:06396000E7CFD9FF1200C1
:0A396600036A026A016A006A200E7B
:10397000E76ED8900436053606360736003601362F
:10398000023603360950005C0A5001580B500258A9
:103990000C50035809E30950005E0A50015A0B50BD
:0E39A000025A0C50035A042AE72EE4D71200F4
:0239AE0017EE12
:1039B00000F027EE00F0F86A0F9CE7EC1CF0BDEC7D
:0E39C00018F07FEC19F080EC1CF0FBD7120021
:0239CE00600E89
:1039D000F36E00EE00F00F0E01D81200EA6002D084
:0E39E000EE6AFCD7F350E9601200EE6AFCD7E5
:0239EE00FF0ECA
:1039F000E350ACBA04D0AF6AAB8EAC8A949CACA254
:0A3A0000FED7AD6EF36EF46A1200FB
:063A0A00C8000A00640080
:103A100000000000FFFF01000000000000000000A7
:103A20000000009D03018000000000000000009DD8
:103A30000302800000000201000000000A000001F3
:023A4000520032
:020000040030CA
:0100010006F8
:0100020019E4
:010003001EDE
:010005008377
:010006008178
:00000001FF
