:020000040000FA
:0400000016EF00F007
:020004000000FA
:040008000EEF00F007
:0800180000001000F294082A18
:10002000085009621000086A0A8010003EEC02F0D5
:10003000CFEC01F0F9EC01F022EC00F029EC02F039
:1000400018EF00F00AA012000A6A0BA0F7EF00F008
:100050000C50010AD8B43FEF00F0030AD8B46CEF9B
:1000600000F0010AD8B48FEF00F0070AD8B4B3EF5C
:1000700000F0010AD8B4D5EF00F0CDEF01F00C6A22
:10008000816ACEA049EF00F0CEA256EF00F04EEF0D
:1000900000F0CEA24EEF00F060EF00F00D508014A3
:1000A000D8B423EF02F00B700EEF01F00D420DA05B
:1000B0000D2A0D508014D8B423EF02F00EEF01F09A
:1000C0000D46200E0D66200E0D508014D8B423EF7F
:1000D00002F00B700EEF01F00C6A826ACEA076EF90
:1000E00000F0CEA27FEF00F07BEF00F0CEA27BEF1E
:1000F00000F087EF00F00DC081FFCCEF01F00D4262
:10010000000E0D640D2A0DC081FFCCEF01F00D46ED
:10011000400E0D600D420DC081FFCCEF01F0010ECD
:100120000C6E836ACEA09AEF00F0CEA2A3EF00F08F
:100130009FEF00F0CEA29FEF00F0ABEF00F00DC0FC
:1001400082FFCCEF01F00D42000E0D640D2A0DC0B0
:1001500082FFCCEF01F00D46400E0D600D420DC048
:1001600082FFCCEF01F0020E0C6E846ACEA0BEEFCF
:1001700000F0CEA2C5EF00F0C3EF00F0CEA2C3EFB7
:1001800000F0CDEF00F00DC083FF0D42000E0D64B6
:100190000D2A0DC083FFCCEF01F00D46400E0D601F
:1001A0000D420DC083FFCCEF01F0030E0C6E856A8B
:1001B000CEA0E0EF00F0CEA2E7EF00F0E5EF00F018
:1001C000CEA2E5EF00F0EFEF00F00DC084FF0D428E
:1001D000000E0D640D2A0DC084FFCCEF01F00D461A
:1001E000400E0D600D420DC084FFCCEF01F00C50AD
:1001F000000AD8B40EEF01F0010AD8B431EF01F0D3
:10020000030AD8B455EF01F0010AD8B479EF01F030
:10021000070AD8B49DEF01F0CDEF01F0010E0C6E8E
:10022000CEA018EF01F0CEA221EF01F01DEF01F0FA
:10023000CEA21DEF01F029EF01F00DC081FFCCEF40
:1002400001F00D42000E0D640D2A0DC081FFCCEFB0
:1002500001F00D46400E0D600D420DC081FFCCEF48
:1002600001F0816A020E0C6ECEA03CEF01F0CEA22E
:1002700045EF01F041EF01F0CEA241EF01F04DEF6B
:1002800001F00DC082FFCCEF01F00D42000E0D64B5
:100290000D2A0DC082FFCCEF01F00D46400E0D601F
:1002A0000D420DC082FFCCEF01F0826A030E0C6E8E
:1002B000CEA060EF01F0CEA269EF01F065EF01F092
:1002C000CEA265EF01F071EF01F00DC083FFCCEF1E
:1002D00001F00D42000E0D640D2A0DC083FFCCEF1E
:1002E00001F00D46400E0D600D420DC082FFCCEFB7
:1002F00001F0836A040E0C6ECEA084EF01F0CEA252
:100300008DEF01F089EF01F0CEA289EF01F095EFBA
:1003100001F00DC084FFCCEF01F00D42000E0D6422
:100320000D2A0DC084FFCCEF01F00D46400E0D608C
:100330000D420DC084FFCCEF01F0846A050E0C6EF7
:10034000CEA0A8EF01F0CEA2B5EF01F0ADEF01F025
:10035000CEA2ADEF01F0C0EF01F00D508514D8B47E
:1003600026EF02F00B70D5EF00F00D420D660D2A5E
:100370000D508514D8B426EF02F00B70D5EF00F0C5
:100380000D46200E0D660D6E0D508514D8B426EF67
:1003900002F00B70D5EF00F012000000000000B07A
:1003A00005D086A206D00480008003D086B201D09A
:1003B000009001B005D086A006D00580018003D052
:1003C00086B001D00190E6EC01F0120004A0EFEF3E
:1003D00001F080B0F6EF01F08042F6EF01F005A0E9
:1003E000F6EF01F080BAF6EF01F080460590049038
:1003F000120002B005D086A606D00680028003D087
:1004000086B601D0029003B005D086A406D007803E
:10041000038003D086B401D0039010EC02F01200E8
:1004200006A019EF02F085B020EF02F0854220EF20
:1004300002F007A020EF02F085BA20EF02F0854617
:10044000069007901200117029EF02F00F7029EF4B
:1004500002F011B0102A116A876A878210C012F068
:100460006AEC02F0886E0FB00E2A0F6A876A8786E0
:100470000EC012F06AEC02F0886E12000F0E986E39
:10048000926A936A946A956A966A976A996A9A6A6E
:100490000F0EC16E1C0E806E856E080E836E0D6E83
:1004A000030E0C6E086A0B6A0A6A006A026A016A25
:1004B000036A046A056A066A076A0E6A106A0F6AA6
:1004C000116A126A2E0E096EF26AC70ED56EF28A92
:1004D000F28E1200F95212461250F9263F0C060C09
:1004E0005B0C4F0C660C6D0C7D0C070C7F0C670CC5
:00000001FF
