:020000040000FA
:040000000EEF00F00F
:020004000000FA
:0800080006EF00F0F294082A53
:10001000085009621000086A0A80100011EC02F012
:10002000BDEC01F0E7EC01F01AEC00F0BDEC01F0E2
:1000300010EF00F00AA012000A6A0BA0F1EF00F026
:100040000C50010AD8B435EF00F0030AD8B462EFBF
:1000500000F0010AD8B486EF00F0070AD8B4ABEF7D
:1000600000F0010AD8B4CEEF00F00C6A816AD6A085
:100070003FEF00F0D6A24CEF00F044EF00F0D6A224
:1000800044EF00F056EF00F00D508014D8B411EF9B
:1000900002F00B7006EF01F00D420DA00D2A0D507D
:1000A0008014D8B411EF02F006EF01F00D46200ED7
:1000B0000DBC200E0D508014D8B411EF02F00B705F
:1000C00006EF01F00C6A826AD6A06CEF00F0D6A2AF
:1000D00075EF00F071EF00F0D6A271EF00F07DEF48
:1000E00000F00DC081FFBCEF01F00D420DB00DC05E
:1000F00081FF010E816EBCEF01F00D460DBC0DC0FD
:1001000081FF200E0DC081FFBCEF01F0010E0C6ECF
:10011000836AD6A091EF00F0D6A29AEF00F096EF96
:1001200000F0D6A296EF00F0A2EF00F00DC082FF23
:10013000BCEF01F00D420DB00DC082FF010E826ECA
:10014000BCEF01F00D460DBC0DC082FF200E0DC0AE
:1001500082FFBCEF01F0020E0C6E846AD6A0B6EFEF
:1001600000F0D6A2BDEF00F0BBEF00F0D6A2BBEFCF
:1001700000F0C5EF00F00DC083FF0D420DB00DC0C3
:1001800083FF010E836EBCEF01F00D460DBC0DC068
:1001900083FF200E0DC083FFBCEF01F0030E0C6E39
:1001A000856AD6A0D9EF00F0D6A2E0EF00F0DEEF2E
:1001B00000F0D6A2DEEF00F0E8EF00F00DC084FF03
:1001C0000D420DB00DC084FF010E846EBCEF01F036
:1001D0000D460DBC0DC084FF200E0DC084FFBCEF8A
:1001E00001F00C50000AD8B406EF01F0010AD8B4AF
:1001F00028EF01F0030AD8B44AEF01F0010AD8B49D
:100200006CEF01F0070AD8B48EEF01F0010E0C6E0E
:10021000D6A010EF01F0D6A217EF01F015EF01F014
:10022000D6A215EF01F01FEF01F00DC081FF0D42C6
:100230000DB00DC081FF010E816EBCEF01F00D46C7
:100240000DBC0DC081FF200E0DC081FFBCEF01F081
:10025000020E0C6ED6A032EF01F0D6A239EF01F0FB
:1002600037EF01F0D6A237EF01F041EF01F00DC0FA
:1002700082FF0D420DB00DC082FF010E826EBCEFF9
:1002800001F00D460DBC0DC082FF200E0DC082FF97
:10029000BCEF01F0030E0C6ED6A054EF01F0D6A215
:1002A0005BEF01F059EF01F0D6A259EF01F063EFD7
:1002B00001F00DC083FF0D420DB00DC083FF010E94
:1002C000836EBCEF01F00D460DBC0DC083FF200E08
:1002D0000DC083FFBCEF01F0040E0C6ED6A076EFCC
:1002E00001F0D6A27DEF01F07BEF01F0D6A27BEF0B
:1002F00001F085EF01F00DC084FF0D420DB00DC07F
:1003000084FF010E846EBCEF01F00D460DBC0DC0E4
:1003100084FF200E0DC084FFBCEF01F0050E0C6EB3
:10032000D6A098EF01F0D6A2A5EF01F09DEF01F065
:10033000D6A29DEF01F0B0EF01F00D508514D8B4B6
:1003400011EF02F00B70CEEF00F00D420DB00D2A50
:100350000D508514D8B411EF02F00B70CEEF00F001
:100360000D46200E0DBC0D6E0D508514D8B411EF46
:1003700002F00B70CEEF00F0120000B005D086A2A4
:1003800006D00480008003D086B201D0009001B076
:1003900005D086A006D00580018003D086B001D0AC
:1003A0000190D4EC01F0120004A0DDEF01F080B068
:1003B000E4EF01F08042E4EF01F005A0E4EF01F08A
:1003C00080BAE4EF01F0804605900490120002B07C
:1003D00005D086A606D00680028003D086B601D05E
:1003E000029003B005D086A406D00780038003D016
:1003F00086B401D00390FEEC01F0120006A007EFD6
:1004000002F085B00EEF02F085420EEF02F007A079
:100410000EEF02F085BA0EEF02F0854606900790C7
:1004200012000F0E986E926A976A0F0EC16E1C0E24
:10043000806E856E0A6A006A026A016A036A046A4B
:10044000056A066A076A0E6A0F6A2E0E096EF26A5C
:0A045000C70ED56EF28AF28E12007C
:00000001FF
