:020000040000FA
:0400000025EF00F0F8
:020004000000FA
:040008001BEF00F0FA
:0800180000001000F952E84459
:10002000F9263F0C060C5B0C4F0C660C6D0C7D0C1E
:10003000070C7F0C670CF294126E082A08500962B4
:1000400002D0086A0A801250100048EC02F0ADECB1
:1000500001F0D7EC01F031EC00F01FEC02F027EFDB
:1000600000F00AA012000A6A0BA0F1EF00F00C5099
:10007000010AD8B44EEF00F0030AD8B47DEF00F0C7
:10008000010AD8B4A1EF00F0070AD8B4C5EF00F018
:10009000010AD8B4E9EF00F0ABEF01F00C6A816A15
:1000A000CEA058EF00F0CEA265EF00F05DEF00F0BB
:1000B000CEA25DEF00F071EF00F00D508014D8B4C7
:1000C00001EF02F00B7008EF01F00D42000E0D641D
:1000D0000D2A0D508014D8B401EF02F00B7008EF18
:1000E00001F00D46400E0D600D420D508014D8B445
:1000F00001EF02F00B7008EF01F0010E0C6E826A46
:10010000CEA088EF00F0CEA291EF00F08DEF00F0CE
:10011000CEA28DEF00F099EF00F00DC081FFAAEFA5
:1001200001F00D42000E0D640D2A0DC081FFAAEFF3
:1001300001F00D46400E0D600D420DC081FFAAEF8B
:1001400001F0020E0C6E836ACEA0ACEF00F0CEA2DE
:10015000B5EF00F0B1EF00F0CEA2B1EF00F0BDEFCF
:1001600000F00DC082FFAAEF01F00D42000E0D64F9
:100170000D2A0DC082FFAAEF01F00D46400E0D6062
:100180000D420DC082FFAAEF01F0030E0C6E846ACF
:10019000CEA0D0EF00F0CEA2D9EF00F0D5EF00F066
:1001A000CEA2D5EF00F0E1EF00F00DC083FFAAEF83
:1001B00001F00D42000E0D640D2A0DC083FFAAEF61
:1001C00001F00D46400E0D600D420DC083FFAAEFF9
:1001D00001F0040E0C6E0DC084FFAAEF01F0AAEF2F
:1001E00001F00C50000AD8B408EF01F0010AD8B4AD
:1001F0000EEF01F0030AD8B432EF01F0010AD8B4CF
:1002000056EF01F0070AD8B47AEF01F0ABEF01F036
:10021000010E0C6E0DC081FFAAEF01F0816A020E83
:100220000C6ECEA019EF01F0CEA222EF01F01EEF6E
:1002300001F0CEA21EEF01F02AEF01F00DC082FF07
:10024000AAEF01F00D42000E0D640D2A0DC082FFD1
:10025000AAEF01F00D46400E0D600D420DC082FF69
:10026000AAEF01F0826A030E0C6ECEA03DEF01F002
:10027000CEA246EF01F042EF01F0CEA242EF01F034
:100280004EEF01F00DC083FFAAEF01F00D42000E0A
:100290000D640D2A0DC083FFAAEF01F00D46400E3C
:1002A0000D600D420DC083FFAAEF01F0836A040EBA
:1002B0000C6ECEA061EF01F0CEA26AEF01F066EF06
:1002C00001F0CEA266EF01F072EF01F00DC084FFE5
:1002D000AAEF01F00D42000E0D640D2A0DC084FF3F
:1002E000AAEF01F00D46400E0D600D420DC084FFD7
:1002F000AAEF01F0846A040E0C6ECEA085EF01F027
:10030000CEA292EF01F08AEF01F0CEA28AEF01F0C7
:100310009EEF01F00D508514D8B40AEF02F00B7077
:10032000E9EF00F00D42000E0D640D2A0D5085140A
:10033000D8B40AEF02F00B70E9EF00F00D46400E62
:100340000D600D420D508514D8B40AEF02F00B7009
:10035000E9EF00F012000000000000B005D086A216
:1003600006D00480008003D086B201D0009001B096
:1003700005D086A006D00580018003D086B001D0CC
:100380000190C4EC01F0120004A0CDEF01F085B0A3
:10039000D4EF01F08542D4EF01F005A0D4EF01F0D5
:1003A00085BAD4EF01F0854605900490120002B0A2
:1003B00005D086A606D00680028003D086B601D07E
:1003C000029003B005D086A406D00780038003D036
:1003D00086B401D00390EEEC01F0120006A0F7EF16
:1003E00001F080B0FEEF01F08042FEEF01F007A0C7
:1003F000FEEF01F080BAFEEF01F080460690079014
:100400001200102A050E106030EF02F01FEC02F00F
:1004100013EF02F00E2A050E0E6030EF02F01FEC13
:1004200002F013EF02F0010E0B6E1C0E806E856E53
:10043000080E836E0D6E030E0C6E27EF00F0876AB8
:10044000878610500EEC00F0886E42EC02F0876A4E
:1004500087820E500EEC00F0886E42EC02F0120023
:10046000906A908610500EEC00F0916E42EC02F013
:10047000906A90820E500EEC00F0916E42EC02F009
:1004800030EF02F0FF0E136E132E44EF02F0120055
:100490000F0E986E0F0EC16E806A816A826A836A3F
:1004A000846A856A876A886A926A936A946A956A96
:1004B000966A976A996A9A6A1C0E806E856E080E13
:1004C000836E0D6E030E0C6E086A0A6A006A026A79
:1004D000016A036A046A056A066A076A0E6A106A94
:1004E0000F6A116A126A010E0B6E2E0E096EF26A05
:0E04F000C70ED56E810ECD6EF28AF28E12000E
:020000040030CA
:0100010006F8
:0100020019E4
:010003001EDE
:01000400F308
:010005008377
:010006008178
:01000800FFF8
:01000900C036
:01000A00FFF6
:01000B00E014
:01000C00FFF4
:01000D0040B2
:00000001FF
