:020000040000FA
:0400000025EF00F0F8
:020004000000FA
:040008001BEF00F0FA
:0800180000001000F952E84459
:10002000F9263F0C060C5B0C4F0C660C6D0C7D0C1E
:10003000070C7F0C670CF294126E082A08500962B4
:1000400002D0086A0A801250100063EC02F0C9EC7A
:1000500001F0F3EC01F031EC00F03AEC02F027EFA4
:1000600000F00AA012000A6A0BA0F0EF00F00C509A
:10007000010AD8B44EEF00F0030AD8B47CEF00F0C8
:10008000010AD8B4A0EF00F0070AD8B4C4EF00F01A
:10009000010AD8B4E8EF00F0C7EF01F00C6A816AFA
:1000A000CEA058EF00F0CEA265EF00F05DEF00F0BB
:1000B000CEA25DEF00F070EF00F00D508014D8B4C8
:1000C0001DEF02F00B7007EF01F00D42000E0D6402
:1000D0000D2A0D508014D8B41DEF02F007EF01F087
:1000E0000D46400E0D600D420D508014D8B41DEF2A
:1000F00002F00B7007EF01F0010E0C6E826ACEA0C9
:1001000087EF00F0CEA290EF00F08CEF00F0CEA2CF
:100110008CEF00F098EF00F00DC081FFC6EF01F00A
:100120000D42000E0D640D2A0DC081FFC6EF01F0D7
:100130000D46400E0D600D420DC081FFC6EF01F06F
:10014000020E0C6E836ACEA0ABEF00F0CEA2B4EF2D
:1001500000F0B0EF00F0CEA2B0EF00F0BCEF00F086
:100160000DC082FFC6EF01F00D42000E0D640D2A96
:100170000DC082FFC6EF01F00D46400E0D600D422E
:100180000DC082FFC6EF01F0030E0C6E846ACEA094
:10019000CFEF00F0CEA2D8EF00F0D4EF00F0CEA267
:1001A000D4EF00F0E0EF00F00DC083FFC6EF01F0E8
:1001B0000D42000E0D640D2A0DC083FFC6EF01F045
:1001C0000D46400E0D600D420DC083FFC6EF01F0DD
:1001D000040E0C6E0DC084FFC6EF01F0C6EF01F0F7
:1001E0000C50000AD8B407EF01F0010AD8B42AEF86
:1001F00001F0030AD8B44EEF01F0010AD8B472EF4F
:1002000001F0070AD8B496EF01F0C7EF01F0010E34
:100210000C6ECEA011EF01F0CEA21AEF01F016EF96
:1002200001F0CEA216EF01F022EF01F00DC081FF28
:10023000C6EF01F00D42000E0D640D2A0DC081FFC6
:10024000C6EF01F00D46400E0D600D420DC081FF5E
:10025000C6EF01F0816A020E0C6ECEA035EF01F000
:10026000CEA23EEF01F03AEF01F0CEA23AEF01F05C
:1002700046EF01F00DC082FFC6EF01F00D42000E07
:100280000D640D2A0DC082FFC6EF01F00D46400E31
:100290000D600D420DC082FFC6EF01F0826A030EB1
:1002A0000C6ECEA059EF01F0CEA262EF01F05EEF2E
:1002B00001F0CEA25EEF01F06AEF01F00DC083FF06
:1002C000C6EF01F00D42000E0D640D2A0DC083FF34
:1002D000C6EF01F00D46400E0D600D420DC082FFCD
:1002E000C6EF01F0836A040E0C6ECEA07DEF01F024
:1002F000CEA286EF01F082EF01F0CEA282EF01F0F4
:100300008EEF01F00DC084FFC6EF01F00D42000E2C
:100310000D640D2A0DC084FFC6EF01F00D46400E9E
:100320000D600D420DC084FFC6EF01F0846A040E1B
:100330000C6ECEA0A1EF01F0CEA2AEEF01F0A6EFC1
:1003400001F0CEA2A6EF01F0BAEF01F00D50851436
:10035000D8B426EF02F00B70E8EF00F00D42000E6B
:100360000D640D2A0D508514D8B426EF02F00B70E1
:10037000E8EF00F00D46400E0D600D420D50851463
:10038000D8B426EF02F00B70E8EF00F01200000086
:10039000000000B005D086A206D00480008003D003
:1003A00086B201D0009001B005D086A006D00580AD
:1003B000018003D086B001D00190E0EC01F0120082
:1003C00004A0E9EF01F080B0F0EF01F08042F0EF1F
:1003D00001F005A0F0EF01F080BAF0EF01F08046E7
:1003E00005900490120002B005D086A606D00680C3
:1003F000028003D086B601D0029003B005D086A457
:1004000006D00780038003D086B401D003900AECA5
:1004100002F0120006A013EF02F085B01AEF02F00E
:1004200085421AEF02F007A01AEF02F085BA1AEF20
:1004300002F08546069007901200102A050E106003
:100440004BEF02F03AEC02F02FEF02F00E2A050E0D
:100450000E604BEF02F03AEC02F02FEF02F00B6A65
:100460001C0E806E856E080E836E0D6E030E0C6E74
:1004700027EF00F0876A878610500EEC00F0886E38
:100480005DEC02F0876A87820E500EEC00F0886EF9
:100490005DEC02F01200906A908610500EEC00F0B5
:1004A000916E5DEC02F0906A90820E500EEC00F0BE
:1004B000916E5DEC02F04BEF02F0FF0E136E132E07
:1004C0005FEF02F012000F0E986E0F0EC16E806A81
:1004D000816A826A836A846A856A876A886A926A9C
:1004E000936A946A956A966A976A996A9A6A1C0EE0
:1004F000806E856E080E836E0D6E030E0C6E086A9C
:100500000B6A0A6A006A026A016A036A046A056A77
:10051000066A076A0E6A106A0F6A116A126A2E0E5C
:10052000096EF26AC70ED56E810ECD6EF28AF28E1A
:020530001200B7
:020000040030CA
:0100010006F8
:0100020019E4
:010003001EDE
:01000400F308
:010005008377
:010006008178
:01000800FFF8
:01000900C036
:01000A00FFF6
:01000B00E014
:01000C00FFF4
:01000D0040B2
:00000001FF
