:020000040000FA
:040000000DEF00F010
:020004000000FA
:0800080006EF00F0F294082A53
:10001000085009621000086A100069EC00F015EC45
:1000200000F03FEC00F00FEF00F000B005D086A22A
:1000300006D00480008003D086B201D0009001B0C9
:1000400005D086A006D00580018003D086B001D0FF
:1000500001902CEC00F0120004A035EF00F080B00D
:100060003CEF00F080423CEF00F005A03CEF00F0D8
:1000700080BA3CEF00F0804605900490120002B078
:1000800005D086A606D00680028003D086B601D0B1
:10009000029003B005D086A406D00780038003D069
:1000A00086B401D0039056EC00F0120006A05FEF7A
:1000B00000F085B066EF00F0854266EF00F007A023
:1000C00066EF00F085BA66EF00F08546069007906F
:1000D00012000F0E986E926A976A0F0EC16E1C0E78
:1000E000806E856E006A026A016A036A046A056AA4
:1000F000066A076A2E0E096EF26AC70ED56EF28A7C
:04010000F28E120069
:020000040030CA
:0100010006F8
:0100020019E4
:010003001EDE
:01000400F308
:010005008377
:010006008178
:01000800FFF8
:01000900C036
:01000A00FFF6
:01000B00E014
:01000C00FFF4
:01000D0040B2
:00000001FF
