:020000040000FA
:040000000EEF00F00F
:020004000000FA
:0800080006EF00F0F294082A53
:10001000085009621000086A0A8010002EEC02F0F5
:10002000C1EC01F0EBEC01F01AEC00F01BEC02F07B
:1000300010EF00F00AA012000A6A0BA0EDEF00F02A
:100040000C50010AD8B435EF00F0030AD8B462EFBF
:1000500000F0010AD8B485EF00F0070AD8B4A9EF80
:1000600000F0010AD8B4CBEF00F00C6A816ACEA090
:100070003FEF00F0CEA24CEF00F044EF00F0CEA234
:1000800044EF00F056EF00F00D508014D8B415EF97
:1000900002F00B7002EF01F00D420DA00D2A0D5081
:1000A0008014D8B415EF02F002EF01F00D46200ED7
:1000B0000D66200E0D508014D8B415EF02F00B70B1
:1000C00002EF01F00C6A826ACEA06CEF00F0CEA2C3
:1000D00075EF00F071EF00F0CEA271EF00F07DEF50
:1000E00000F00DC081FFC0EF01F00D42000E0D6465
:1000F0000D2A0DC081FFC0EF01F00D46400E0D60CE
:100100000D420DC081FFC0EF01F0010E0C6E836A3D
:10011000CEA090EF00F0CEA299EF00F095EF00F0A6
:10012000CEA295EF00F0A1EF00F00DC082FFC0EF6E
:1001300001F00D42000E0D640D2A0DC082FFC0EFCC
:1001400001F00D46400E0D600D420DC082FFC0EF64
:1001500001F0020E0C6E846ACEA0B4EF00F0CEA2C5
:10016000BBEF00F0B9EF00F0CEA2B9EF00F0C3EFA3
:1001700000F00DC083FF0D42000E0D640D2A0DC06E
:1001800083FFC0EF01F00D46400E0D600D420DC023
:1001900083FFC0EF01F0030E0C6E856ACEA0D6EF90
:1001A00000F0CEA2DDEF00F0DBEF00F0CEA2DBEF3F
:1001B00000F0E5EF00F00DC084FF0D42000E0D646D
:1001C0000D2A0DC084FFC0EF01F00D46400E0D60FA
:1001D0000D420DC084FFC0EF01F00C50000AD8B4EE
:1001E00002EF01F0010AD8B425EF01F0030AD8B4F8
:1001F00049EF01F0010AD8B46DEF01F0070AD8B455
:1002000091EF01F0010E0C6ECEA00CEF01F0CEA22A
:1002100015EF01F011EF01F0CEA211EF01F01DEF8B
:1002200001F00DC081FFC0EF01F00D42000E0D6422
:100230000D2A0DC081FFC0EF01F00D46400E0D608C
:100240000D420DC081FFC0EF01F0816A020E0C6EFD
:10025000CEA030EF01F0CEA239EF01F035EF01F082
:10026000CEA235EF01F041EF01F00DC082FFC0EFEB
:1002700001F00D42000E0D640D2A0DC082FFC0EF8B
:1002800001F00D46400E0D600D420DC082FFC0EF23
:1002900001F0826A030E0C6ECEA054EF01F0CEA2E4
:1002A0005DEF01F059EF01F0CEA259EF01F065EFDB
:1002B00001F00DC083FFC0EF01F00D42000E0D6490
:1002C0000D2A0DC083FFC0EF01F00D46400E0D60FA
:1002D0000D420DC082FFC0EF01F0836A040E0C6E68
:1002E000CEA078EF01F0CEA281EF01F07DEF01F01A
:1002F000CEA27DEF01F089EF01F00DC084FFC0EFC9
:1003000001F00D42000E0D640D2A0DC084FFC0EFF8
:1003100001F00D46400E0D600D420DC084FFC0EF90
:1003200001F0846A050E0C6ECEA09CEF01F0CEA207
:10033000A9EF01F0A1EF01F0CEA2A1EF01F0B4EF1F
:1003400001F00D508514D8B418EF02F00B70CBEF0C
:1003500000F00D420D660D2A0D508514D8B418EF2B
:1003600002F00B70CBEF00F00D46200E0D660D6E07
:100370000D508514D8B418EF02F00B70CBEF00F0DD
:10038000120000B005D086A206D00480008003D001
:1003900086B201D0009001B005D086A006D00580BD
:1003A000018003D086B001D00190D8EC01F012009A
:1003B00004A0E1EF01F080B0E8EF01F08042E8EF47
:1003C00001F005A0E8EF01F080BAE8EF01F0804607
:1003D00005900490120002B005D086A606D00680D3
:1003E000028003D086B601D0029003B005D086A467
:1003F00006D00780038003D086B401D0039002ECBE
:1004000002F0120006A00BEF02F085B012EF02F02E
:10041000854212EF02F007A012EF02F085BA12EF48
:1004200002F0854606900790120011701BEF02F053
:100430000F701BEF02F011B0102A116A876A8782D1
:10044000100E58EC02F0886E0FA00E2A0F6A876A11
:1004500087860E0E58EC02F0886E12000F0E986E12
:10046000926A936A946A956A966A976A0F0EC16E49
:100470001C0E806E856E080E836E0D6E030E0C6E64
:100480000B6A0A6A006A026A016A036A046A056AF8
:10049000066A076A0E6A106A0F6A116A2E0E096EE2
:1004A000F26AC70ED56E090ECD6EF28AF28E120078
:1004B000F952E844F9263F0C060C5B0C4F0C660C15
:0A04C0006D0C7D0C070C7F0C670C1F
:00000001FF
