:020000040000FA
:0400000018EF00F005
:020004000000FA
:040008000EEF00F007
:0800180000001000F294126ECA
:10002000082A0850096202D0086A0A80125010009B
:1000300077EC02F0D7EC01F001EC02F024EC00F0D8
:1000400048EC02F01AEF00F00AA012000A6A0BA0B6
:10005000FEEF00F00C50010AD8B441EF00F0030AA3
:10006000D8B46FEF00F0010AD8B493EF00F0070A9C
:10007000D8B4B7EF00F0010AD8B4DBEF00F0D5EF49
:1000800001F00C6A816ACEA04BEF00F0CEA258EFCF
:1000900000F050EF00F0CEA250EF00F063EF00F060
:1000A0000D508014D8B42BEF02F00B7015EF01F057
:1000B0000D42000E0D640D2A0D508014D8B42BEFA4
:1000C00002F015EF01F00D46400E0D600D420D508F
:1000D0008014D8B42BEF02F00B7015EF01F0010E75
:1000E0000C6E826ACEA07AEF00F0CEA283EF00F011
:1000F0007FEF00F0CEA27FEF00F08BEF00F00DC09D
:1001000081FFD4EF01F00D42000E0D640D2A0DC0E9
:1001100081FFD4EF01F00D46400E0D600D420DC081
:1001200081FFD4EF01F0020E0C6E836ACEA09EEF29
:1001300000F0CEA2A7EF00F0A3EF00F0CEA2A3EF55
:1001400000F0AFEF00F00DC082FFD4EF01F00D42E0
:10015000000E0D640D2A0DC082FFD4EF01F00D4694
:10016000400E0D600D420DC082FFD4EF01F0030E72
:100170000C6E846ACEA0C2EF00F0CEA2CBEF00F0EE
:10018000C7EF00F0CEA2C7EF00F0D3EF00F00DC034
:1001900083FFD4EF01F00D42000E0D640D2A0DC057
:1001A00083FFD4EF01F00D46400E0D600D420DC0EF
:1001B00083FFD4EF01F0040E0C6ECEA0E5EF00F04B
:1001C000CEA2EEEF00F0EAEF00F0CEA2EAEF00F0F0
:1001D000F6EF00F00DC084FFD4EF01F00D42000EE9
:1001E0000D640D2A0DC084FFD4EF01F00D46400EC2
:1001F0000D600D420DC084FFD4EF01F00C50000AD9
:10020000D8B415EF01F0010AD8B438EF01F0030AB1
:10021000D8B45CEF01F0010AD8B480EF01F0070A0E
:10022000D8B4A4EF01F0D5EF01F0010E0C6ECEA012
:100230001FEF01F0CEA228EF01F024EF01F0CEA2D3
:1002400024EF01F030EF01F00DC081FFD4EF01F099
:100250000D42000E0D640D2A0DC081FFD4EF01F098
:100260000D46400E0D600D420DC081FFD4EF01F030
:10027000816A020E0C6ECEA043EF01F0CEA24CEFCD
:1002800001F048EF01F0CEA248EF01F054EF01F089
:100290000DC082FFD4EF01F00D42000E0D640D2A57
:1002A0000DC082FFD4EF01F00D46400E0D600D42EF
:1002B0000DC082FFD4EF01F0826A030E0C6ECEA057
:1002C00067EF01F0CEA270EF01F06CEF01F0CEA26B
:1002D0006CEF01F078EF01F00DC083FFD4EF01F077
:1002E0000D42000E0D640D2A0DC083FFD4EF01F006
:1002F0000D46400E0D600D420DC082FFD4EF01F09F
:10030000836A040E0C6ECEA08BEF01F0CEA294EFA8
:1003100001F090EF01F0CEA290EF01F09CEF01F020
:100320000DC084FFD4EF01F00D42000E0D640D2AC4
:100330000DC084FFD4EF01F00D46400E0D600D425C
:100340000DC084FFD4EF01F0846A040E0C6ECEA0C1
:10035000AFEF01F0CEA2BCEF01F0B4EF01F0CEA2FE
:10036000B4EF01F0C8EF01F00D508514D8B434EFAC
:1003700002F00B70DBEF00F00D42000E0D640D2A51
:100380000D508514D8B434EF02F00B70DBEF00F0A1
:100390000D46400E0D600D420D508514D8B434EF5B
:1003A00002F00B70DBEF00F012000000000000B064
:1003B00005D086A206D00480008003D086B201D08A
:1003C000009001B005D086A006D00580018003D042
:1003D00086B001D00190EEEC01F0120004A0F7EF1E
:1003E00001F080B0FEEF01F08042FEEF01F005A0C9
:1003F000FEEF01F080BAFEEF01F080460590049018
:10040000120002B005D086A606D00680028003D076
:1004100086B601D0029003B005D086A406D007802E
:10042000038003D086B401D0039018EC02F01200D0
:1004300006A021EF02F085B028EF02F0854228EFF8
:1004400002F007A028EF02F085BA28EF02F08546F7
:100450000690079012001180050E10605BEF02F00D
:1004600048EC02F03DEF02F00F80050E0E605BEFEE
:1004700002F048EC02F03DEF02F00B6A1C0E806EB9
:10048000856E080E836E0D6E030E0C6E1AEF00F073
:1004900011B0102A116A878287961050ADEC02F0D5
:1004A000886E0FB00E2A0F6A878687920E50ADECC9
:1004B00002F0886E1200876A8782000EADEC02F0AF
:1004C000876A8786000EADEC02F05BEF02F0100E3B
:1004D000156E100E146E9A0E136E132E6DEF02F041
:1004E000142E6BEF02F0152E69EF02F012000F0EC2
:1004F000986E0F0EC16E806A816A826A836A846A0E
:10050000856A876A886A926A936A946A956A966A23
:10051000976A996A9A6A1C0E806E856E080E836EC1
:100520000D6E030E0C6E086A0B6A0A6A006A026A94
:10053000016A036A046A056A066A076A0E6A106A33
:100540000F6A116A126A2E0E096EF26AC70ED56E14
:10055000810ECD6EF28AF28E1200F952E844F9262D
:100560003F0C060C5B0C4F0C660C6D0C7D0C070CE5
:040570007F0C670C89
:020000040030CA
:0100010006F8
:0100020019E4
:010003001EDE
:01000400F308
:010005008377
:010006008178
:01000800FFF8
:01000900C036
:01000A00FFF6
:01000B00E014
:01000C00FFF4
:01000D0040B2
:00000001FF
