:020000040000FA
:0400000025EF00F0F8
:020004000000FA
:040008001BEF00F0FA
:0800180000001000F952E84459
:10002000F9263F0C060C5B0C4F0C660C6D0C7D0C1E
:10003000070C7F0C670CF294126E082A08500962B4
:1000400002D0086A0A801250100020EC02F085EC01
:1000500001F0AFEC01F031EC00F0F7EC01F027EF2C
:1000600000F00AA012000A6A0BA0DDEF00F00C50AD
:10007000010AD8B44CEF00F0030AD8B477EF00F0CF
:10008000010AD8B497EF00F0070AD8B4B7EF00F030
:10009000010AD8B4D7EF00F00C6A816ACEA056EFFF
:1000A00000F0CEA263EF00F05BEF00F0CEA25BEFBA
:1000B00000F06DEF00F00D508014D8B4D9EF01F0CE
:1000C0000B70F2EF00F00DA00D420D508014D8B46B
:1000D000D9EF01F00B70F2EF00F00DAA0D460D50B4
:1000E0008014D8B4D9EF01F00B70F2EF00F0010EDC
:1000F0000C6E826ACEA082EF00F0CEA28BEF00F0F1
:1001000087EF00F0CEA287EF00F091EF00F00DC076
:1001100081FF84EF01F00DA00D420DC081FF84EF3F
:1001200001F00DAA0D460DC081FF84EF01F0020E13
:100130000C6E836ACEA0A2EF00F0CEA2ABEF00F06F
:10014000A7EF00F0CEA2A7EF00F0B1EF00F00DC0D6
:1001500082FF84EF01F00DA00D420DC082FF84EFFD
:1001600001F00DAA0D460DC082FF84EF01F0030ED1
:100170000C6E846ACEA0C2EF00F0CEA2CBEF00F0EE
:10018000C7EF00F0CEA2C7EF00F0D1EF00F00DC036
:1001900083FF84EF01F00DA00D420DC083FF84EFBB
:1001A00001F00DAA0D460DC083FF84EF01F0040E8F
:1001B0000C6E0DC084FF84EF01F00C50000AD8B41F
:1001C000F2EF00F0010AD8B4F8EF00F0030AD8B457
:1001D00018EF01F0010AD8B438EF01F0070AD8B4DB
:1001E00058EF01F0010E0C6E0DC081FF84EF01F09D
:1001F000816A020E0C6ECEA003EF01F0CEA20CEFCE
:1002000001F008EF01F0CEA208EF01F012EF01F0CB
:100210000DC082FF84EF01F00DA00D420DC082FFE2
:1002200084EF01F00DAA0D460DC082FF84EF01F0AE
:10023000826A030E0C6ECEA023EF01F0CEA22CEF4B
:1002400001F028EF01F0CEA228EF01F032EF01F02B
:100250000DC083FF84EF01F00DA00D420DC083FFA0
:1002600084EF01F00DAA0D460DC083FF84EF01F06D
:10027000836A040E0C6ECEA043EF01F0CEA24CEFC9
:1002800001F048EF01F0CEA248EF01F052EF01F08B
:100290000DC084FF84EF01F00DA00D420DC084FF5E
:1002A00084EF01F00DAA0D460DC084FF84EF01F02C
:1002B000846A040E0C6ECEA063EF01F0CEA270EF44
:1002C00001F068EF01F0CEA268EF01F07AEF01F0E3
:1002D0000D508514D8B4E2EF01F00B70D7EF00F0A9
:1002E0000DA00D420D508514D8B4E2EF01F00B7053
:1002F000D7EF00F00DAA0D460D508514D8B4E2EFEB
:1003000001F00B70D7EF00F0120000B005D086A20C
:1003100006D00480008003D086B201D0009001B0E6
:1003200005D086A006D00580018003D086B001D01C
:1003300001909CEC01F0120004A0A5EF01F085B043
:10034000ACEF01F08542ACEF01F005A0ACEF01F09D
:1003500085BAACEF01F0854605900490120002B01A
:1003600005D086A606D00680028003D086B601D0CE
:10037000029003B005D086A406D00780038003D086
:1003800086B401D00390C6EC01F0120006A0CFEFB6
:1003900001F080B0D6EF01F08042D6EF01F007A067
:1003A000D6EF01F080BAD6EF01F0804606900790B4
:1003B0001200102A050E106008EF02F0F7EC01F0B1
:1003C000EBEF01F00E2A050E0E6008EF02F0F7ECDD
:1003D00001F0EBEF01F0010E0B6E1C0E806E856ECE
:1003E000080E836E0D6E030E0C6E27EF00F0876A09
:1003F000878610500EEC00F0886E1AEC02F0876AC7
:1004000087820E500EEC00F0886E1AEC02F012009B
:10041000906A908610500EEC00F0916E1AEC02F08B
:10042000906A90820E500EEC00F0916E1AEC02F081
:1004300008EF02F0FF0E136E132E1CEF02F01200F5
:100440000F0E986E0F0EC16E806A816A826A836A8F
:10045000846A856A876A886A926A936A946A956AE6
:10046000966A976A996A9A6A1C0E806E856E080E63
:10047000836E0D6E030E0C6E086A0A6A006A026AC9
:10048000016A036A046A056A066A076A0E6A106AE4
:100490000F6A116A126A010E0B6E2E0E096EF26A55
:0E04A000C70ED56E810ECD6EF28AF28E12005E
:020000040030CA
:0100010006F8
:0100020019E4
:010003001EDE
:010005008377
:010006008178
:00000001FF
