:020000040000FA
:0400000007EF00F016
:020004000000FA
:0800080006EF00F0100063ECAC
:1000100000F00FEC00F039EC00F009EF00F000B058
:1000200005D086A206D00480008003D086B201D01D
:10003000009001B005D086A006D00580018003D0D5
:1000400086B001D0019026EC00F0120004A02FEF42
:1000500000F080B036EF00F0804236EF00F005A0EF
:1000600036EF00F080BA36EF00F08046059004903D
:10007000120002B005D086A606D00680028003D00A
:1000800086B601D0029003B005D086A406D00780C2
:10009000038003D086B401D0039050EC00F012002E
:1000A00006A059EF00F085B060EF00F0854260EFE8
:1000B00000F007A060EF00F085BA60EF00F0854621
:1000C0000690079012000F0E986E926A976AF26A75
:1000D000F28E0F0EC16E1C0E806E856E006A026A73
:0E00E000016A036A046A056A066A076A12006A
:020000040030CA
:0100010006F8
:0100020019E4
:010003001EDE
:01000400F308
:010005008377
:010006008178
:01000800FFF8
:01000900C036
:01000A00FFF6
:01000B00E014
:01000C00FFF4
:01000D0040B2
:00000001FF
