:020000040000FA
:0400000016EF00F007
:020004000000FA
:040008000EEF00F007
:0800180000001000F294082A18
:10002000085009621000086A0A8010005EEC02F0B5
:10003000D5EC01F0FFEC01F022EC00F037EC02F01F
:1000400018EF00F00AA012000A6A0BA0FCEF00F003
:100050000C50010AD8B43FEF00F0030AD8B46DEF9A
:1000600000F0010AD8B491EF00F0070AD8B4B5EF58
:1000700000F0010AD8B4D9EF00F0D3EF01F00C6A18
:10008000816ACEA049EF00F0CEA256EF00F04EEF0D
:1000900000F0CEA24EEF00F061EF00F00D508014A2
:1000A000D8B429EF02F00B7013EF01F00D42000EEF
:1000B0000D640D2A0D508014D8B429EF02F013EF0F
:1000C00001F00D46400E0D600D420D508014D8B465
:1000D00029EF02F00B7013EF01F0010E0C6E826A33
:1000E000CEA078EF00F0CEA281EF00F07DEF00F01F
:1000F000CEA27DEF00F089EF00F00DC081FFD2EFBE
:1001000001F00D42000E0D640D2A0DC081FFD2EFEB
:1001100001F00D46400E0D600D420DC081FFD2EF83
:1001200001F0020E0C6E836ACEA09CEF00F0CEA20E
:10013000A5EF00F0A1EF00F0CEA2A1EF00F0ADEF2F
:1001400000F00DC082FFD2EF01F00D42000E0D64F1
:100150000D2A0DC082FFD2EF01F00D46400E0D605A
:100160000D420DC082FFD2EF01F0030E0C6E846AC7
:10017000CEA0C0EF00F0CEA2C9EF00F0C5EF00F0B6
:10018000CEA2C5EF00F0D1EF00F00DC083FFD2EF9B
:1001900001F00D42000E0D640D2A0DC083FFD2EF59
:1001A00001F00D46400E0D600D420DC083FFD2EFF1
:1001B00001F0040E0C6ECEA0E3EF00F0CEA2ECEF47
:1001C00000F0E8EF00F0CEA2E8EF00F0F4EF00F06E
:1001D0000DC084FFD2EF01F00D42000E0D640D2A18
:1001E0000DC084FFD2EF01F00D46400E0D600D42B0
:1001F0000DC084FFD2EF01F00C50000AD8B413EF09
:1002000001F0010AD8B436EF01F0030AD8B45AEF6E
:1002100001F0010AD8B47EEF01F0070AD8B4A2EFCA
:1002200001F0D3EF01F0010E0C6ECEA01DEF01F036
:10023000CEA226EF01F022EF01F0CEA222EF01F0D4
:100240002EEF01F00DC081FFD2EF01F00D42000E44
:100250000D640D2A0DC081FFD2EF01F00D46400E56
:100260000D600D420DC081FFD2EF01F0816A020ED8
:100270000C6ECEA041EF01F0CEA24AEF01F046EFA6
:1002800001F0CEA246EF01F052EF01F00DC082FF67
:10029000D2EF01F00D42000E0D640D2A0DC082FF59
:1002A000D2EF01F00D46400E0D600D420DC082FFF1
:1002B000D2EF01F0826A030E0C6ECEA065EF01F062
:1002C000CEA26EEF01F06AEF01F0CEA26AEF01F06C
:1002D00076EF01F00DC083FFD2EF01F00D42000E6A
:1002E0000D640D2A0DC083FFD2EF01F00D46400EC4
:1002F0000D600D420DC082FFD2EF01F0836A040E43
:100300000C6ECEA089EF01F0CEA292EF01F08EEF3D
:1003100001F0CEA28EEF01F09AEF01F00DC084FF44
:10032000D2EF01F00D42000E0D640D2A0DC084FFC6
:10033000D2EF01F00D46400E0D600D420DC084FF5E
:10034000D2EF01F0846A040E0C6ECEA0ADEF01F086
:10035000CEA2BAEF01F0B2EF01F0CEA2B2EF01F0FF
:10036000C6EF01F00D508514D8B430EF02F00B70D9
:10037000D9EF00F00D42000E0D640D2A0D508514CA
:10038000D8B430EF02F00B70D9EF00F00D46400EFC
:100390000D600D420D508514D8B430EF02F00B7093
:1003A000D9EF00F012000000000000B005D086A2D6
:1003B00006D00480008003D086B201D0009001B046
:1003C00005D086A006D00580018003D086B001D07C
:1003D0000190ECEC01F0120004A0F5EF01F080B008
:1003E000FCEF01F08042FCEF01F005A0FCEF01F012
:1003F00080BAFCEF01F0804605900490120002B034
:1004000005D086A606D00680028003D086B601D02D
:10041000029003B005D086A406D00780038003D0E5
:1004200086B401D0039016EC02F0120006A01FEF74
:1004300002F085B026EF02F0854226EF02F007A019
:1004400026EF02F085BA26EF02F085460690079067
:1004500012001180050E106052EF02F037EF02F02B
:100460000F80050E0E6052EF02F037EF02F011B070
:10047000102A116A876A8782106A10C012F093EC02
:1004800002F0886E53EC02F00FB00E2A0F6A876AF2
:1004900087860E6A0EC012F093EC02F0886E53EC61
:1004A00002F012000000090E146E9A0E136E132E45
:1004B00057EF02F0142E55EF02F012000F0E986E57
:1004C0000F0EC16E926A936A946A956A966A976AE9
:1004D000996A9A6A806A816A826A836A846A856A8A
:1004E000886A1C0E806E856E080E836E0D6E030E7C
:1004F0000C6E086A0B6A0A6A006A026A016A036A79
:10050000046A056A066A076A0E6A106A0F6A116A47
:10051000126A2E0E096EF26AC70ED56E810ECD6E6E
:10052000F28AF28E1200F95212461250F9263F0C4E
:10053000060C5B0C4F0C660C6D0C7D0C070C7F0CD5
:02054000670C46
:020000040030CA
:0100010006F8
:0100020019E4
:010003001EDE
:01000400F308
:010005008377
:010006008178
:01000800FFF8
:01000900C036
:01000A00FFF6
:01000B00E014
:01000C00FFF4
:01000D0040B2
:00000001FF
