:020000040000FA
:040000000EEF00F00F
:020004000000FA
:0800080006EF00F0F294082A53
:10001000085009621000086A0A8010003FEC02F0E4
:10002000C5EC01F0EFEC01F01AEC00F01FEC02F06F
:1000300010EF00F00AA012000A6A0BA0F1EF00F026
:100040000C50010AD8B435EF00F0030AD8B462EFBF
:1000500000F0010AD8B486EF00F0070AD8B4ABEF7D
:1000600000F0010AD8B4CEEF00F00C6A816ACEA08D
:100070003FEF00F0CEA24CEF00F044EF00F0CEA234
:1000800044EF00F056EF00F00D508014D8B419EF93
:1000900002F00B7006EF01F00D420DA00D2A0D507D
:1000A0008014D8B419EF02F006EF01F00D46200ECF
:1000B0000D66200E0D508014D8B419EF02F00B70AD
:1000C00006EF01F00C6A826ACEA06CEF00F0CEA2BF
:1000D00075EF00F071EF00F0CEA271EF00F07DEF50
:1000E00000F00DC081FFC4EF01F00D420D660DC0A0
:1000F00081FF010E816EC4EF01F00D460D660DC04B
:1001000081FF200E0DC081FFC4EF01F0010E0C6EC7
:10011000836ACEA091EF00F0CEA29AEF00F096EFA6
:1001200000F0CEA296EF00F0A2EF00F00DC082FF2B
:10013000C4EF01F00D420D660DC082FF010E826E0C
:10014000C4EF01F00D460D660DC082FF200E0DC0FC
:1001500082FFC4EF01F0020E0C6E846ACEA0B6EFEF
:1001600000F0CEA2BDEF00F0BBEF00F0CEA2BBEFDF
:1001700000F0C5EF00F00DC083FF0D420D660DC00D
:1001800083FF010E836EC4EF01F00D460D660DC0B6
:1001900083FF200E0DC083FFC4EF01F0030E0C6E31
:1001A000856ACEA0D9EF00F0CEA2E0EF00F0DEEF3E
:1001B00000F0CEA2DEEF00F0E8EF00F00DC084FF0B
:1001C0000D420D660DC084FF010E846EC4EF01F078
:1001D0000D460D660DC084FF200E0DC084FFC4EFD8
:1001E00001F00C50000AD8B406EF01F0010AD8B4AF
:1001F00029EF01F0030AD8B44DEF01F0010AD8B499
:1002000071EF01F0070AD8B495EF01F0010E0C6E02
:10021000CEA010EF01F0CEA219EF01F015EF01F022
:10022000CEA215EF01F020EF01F00DC081FFC4EF69
:1002300001F00D420D500D66010E816EC4EF01F00C
:100240000D460D660DC081FF200E0DC081FFC4EF6D
:1002500001F0816A020E0C6ECEA034EF01F0CEA246
:100260003DEF01F039EF01F0CEA239EF01F044EF9C
:1002700001F00DC082FFC4EF01F00D420D500D667C
:10028000010E826EC4EF01F00D460D660DC082FFB7
:10029000200E0DC082FFC4EF01F0826A030E0C6EC7
:1002A000CEA058EF01F0CEA261EF01F05DEF01F0BA
:1002B000CEA25DEF01F068EF01F00DC083FFC4EF47
:1002C00001F00D420D500D66010E836EC4EF01F07A
:1002D0000D460D660DC083FF200E0DC083FFC4EFD9
:1002E00001F0836A040E0C6ECEA07CEF01F0CEA26A
:1002F00085EF01F081EF01F0CEA281EF01F08CEFEC
:1003000001F00DC084FFC4EF01F00D420D500D66E9
:10031000010E846EC4EF01F00D460D660DC084FF22
:10032000200E0DC084FFC4EF01F0846A050E0C6E30
:10033000CEA0A0EF01F0CEA2ADEF01F0A5EF01F04D
:10034000CEA2A5EF01F0B8EF01F00D508514D8B49E
:100350001CEF02F00B70CEEF00F00D420D660D2A7F
:100360000D508514D8B41CEF02F00B70CEEF00F0E6
:100370000D46200E0D660D6E0D508514D8B41CEF81
:1003800002F00B70CEEF00F0120000B005D086A294
:1003900006D00480008003D086B201D0009001B066
:1003A00005D086A006D00580018003D086B001D09C
:1003B0000190DCEC01F0120004A0E5EF01F080B048
:1003C000ECEF01F08042ECEF01F005A0ECEF01F062
:1003D00080BAECEF01F0804605900490120002B064
:1003E00005D086A606D00680028003D086B601D04E
:1003F000029003B005D086A406D00780038003D006
:1004000086B401D0039006EC02F0120006A00FEFB4
:1004100002F085B016EF02F0854216EF02F007A059
:1004200016EF02F085BA16EF02F0854606900790A7
:10043000120011701FEF02F00F701FEF02F011B0E9
:10044000102A116A876A8782100E32EC02F0886ED9
:100450000FA00E2A0F6A876A87860E0E32EC02F012
:10046000886E1200F952E844F9263F0C060C5B0C2A
:100470004F0C660C6D0C7D0C070C7F0C670C0F0E7F
:10048000986E926A936A946A956A966A976A0F0E52
:10049000C16E1C0E806E856E080E836E0D6E030E8F
:1004A0000C6E0B6A0A6A006A026A016A036A046ACD
:1004B000056A066A076A0E6A106A0F6A116A2E0ECA
:1004C000096EF26AC70ED56E090ECD6EF28AF28EF3
:0204D000120018
:00000001FF
